{
  "contractName": "ATC",
  "abi": [
    {
      "inputs": [
        {
          "internalType": "string",
          "name": "_username",
          "type": "string"
        }
      ],
      "stateMutability": "nonpayable",
      "type": "constructor"
    },
    {
      "inputs": [
        {
          "internalType": "address",
          "name": "",
          "type": "address"
        },
        {
          "internalType": "uint256",
          "name": "",
          "type": "uint256"
        },
        {
          "internalType": "uint256",
          "name": "",
          "type": "uint256"
        }
      ],
      "name": "dropSlots",
      "outputs": [
        {
          "internalType": "address",
          "name": "customer",
          "type": "address"
        },
        {
          "internalType": "bool",
          "name": "paidOut",
          "type": "bool"
        },
        {
          "internalType": "enum ATC.SlotStatus",
          "name": "slotStatus",
          "type": "uint8"
        },
        {
          "internalType": "string",
          "name": "slotID",
          "type": "string"
        },
        {
          "internalType": "string",
          "name": "title",
          "type": "string"
        },
        {
          "internalType": "uint256",
          "name": "price",
          "type": "uint256"
        }
      ],
      "stateMutability": "view",
      "type": "function",
      "constant": true
    },
    {
      "inputs": [
        {
          "internalType": "address",
          "name": "",
          "type": "address"
        }
      ],
      "name": "userData",
      "outputs": [
        {
          "internalType": "string",
          "name": "username",
          "type": "string"
        },
        {
          "internalType": "enum ATC.Role",
          "name": "role",
          "type": "uint8"
        }
      ],
      "stateMutability": "view",
      "type": "function",
      "constant": true
    },
    {
      "inputs": [
        {
          "internalType": "address",
          "name": "",
          "type": "address"
        },
        {
          "internalType": "uint256",
          "name": "",
          "type": "uint256"
        }
      ],
      "name": "userDrops",
      "outputs": [
        {
          "internalType": "string",
          "name": "title",
          "type": "string"
        },
        {
          "internalType": "uint256",
          "name": "price",
          "type": "uint256"
        },
        {
          "internalType": "enum ATC.DropStatus",
          "name": "dropStatus",
          "type": "uint8"
        }
      ],
      "stateMutability": "view",
      "type": "function",
      "constant": true
    },
    {
      "inputs": [
        {
          "internalType": "address",
          "name": "",
          "type": "address"
        },
        {
          "internalType": "uint256",
          "name": "",
          "type": "uint256"
        }
      ],
      "name": "userSlots",
      "outputs": [
        {
          "internalType": "address",
          "name": "customer",
          "type": "address"
        },
        {
          "internalType": "bool",
          "name": "paidOut",
          "type": "bool"
        },
        {
          "internalType": "enum ATC.SlotStatus",
          "name": "slotStatus",
          "type": "uint8"
        },
        {
          "internalType": "string",
          "name": "slotID",
          "type": "string"
        },
        {
          "internalType": "string",
          "name": "title",
          "type": "string"
        },
        {
          "internalType": "uint256",
          "name": "price",
          "type": "uint256"
        }
      ],
      "stateMutability": "view",
      "type": "function",
      "constant": true
    },
    {
      "inputs": [
        {
          "internalType": "address",
          "name": "_newUser",
          "type": "address"
        },
        {
          "internalType": "string",
          "name": "_username",
          "type": "string"
        }
      ],
      "name": "addUser",
      "outputs": [],
      "stateMutability": "nonpayable",
      "type": "function"
    },
    {
      "inputs": [
        {
          "internalType": "string",
          "name": "_username",
          "type": "string"
        }
      ],
      "name": "register",
      "outputs": [],
      "stateMutability": "nonpayable",
      "type": "function"
    },
    {
      "inputs": [
        {
          "internalType": "string",
          "name": "_title",
          "type": "string"
        },
        {
          "internalType": "uint256",
          "name": "_price",
          "type": "uint256"
        }
      ],
      "name": "addDrop",
      "outputs": [],
      "stateMutability": "nonpayable",
      "type": "function"
    },
    {
      "inputs": [
        {
          "internalType": "address",
          "name": "_procurerAddress",
          "type": "address"
        },
        {
          "internalType": "uint256",
          "name": "_dropIndex",
          "type": "uint256"
        },
        {
          "internalType": "string",
          "name": "_slotID",
          "type": "string"
        },
        {
          "internalType": "string",
          "name": "_title",
          "type": "string"
        }
      ],
      "name": "buySlot",
      "outputs": [],
      "stateMutability": "payable",
      "type": "function",
      "payable": true
    },
    {
      "inputs": [],
      "name": "getDrops",
      "outputs": [
        {
          "components": [
            {
              "internalType": "string",
              "name": "title",
              "type": "string"
            },
            {
              "internalType": "uint256",
              "name": "price",
              "type": "uint256"
            },
            {
              "internalType": "enum ATC.DropStatus",
              "name": "dropStatus",
              "type": "uint8"
            }
          ],
          "internalType": "struct ATC.Drop[]",
          "name": "",
          "type": "tuple[]"
        }
      ],
      "stateMutability": "view",
      "type": "function",
      "constant": true
    },
    {
      "inputs": [],
      "name": "getSlots",
      "outputs": [
        {
          "components": [
            {
              "internalType": "address",
              "name": "customer",
              "type": "address"
            },
            {
              "internalType": "bool",
              "name": "paidOut",
              "type": "bool"
            },
            {
              "internalType": "enum ATC.SlotStatus",
              "name": "slotStatus",
              "type": "uint8"
            },
            {
              "internalType": "string",
              "name": "slotID",
              "type": "string"
            },
            {
              "internalType": "string",
              "name": "title",
              "type": "string"
            },
            {
              "internalType": "uint256",
              "name": "price",
              "type": "uint256"
            }
          ],
          "internalType": "struct ATC.Slot[]",
          "name": "",
          "type": "tuple[]"
        }
      ],
      "stateMutability": "view",
      "type": "function",
      "constant": true
    },
    {
      "inputs": [
        {
          "internalType": "uint256",
          "name": "_dropIndex",
          "type": "uint256"
        }
      ],
      "name": "getDropSlots",
      "outputs": [
        {
          "components": [
            {
              "internalType": "address",
              "name": "customer",
              "type": "address"
            },
            {
              "internalType": "bool",
              "name": "paidOut",
              "type": "bool"
            },
            {
              "internalType": "enum ATC.SlotStatus",
              "name": "slotStatus",
              "type": "uint8"
            },
            {
              "internalType": "string",
              "name": "slotID",
              "type": "string"
            },
            {
              "internalType": "string",
              "name": "title",
              "type": "string"
            },
            {
              "internalType": "uint256",
              "name": "price",
              "type": "uint256"
            }
          ],
          "internalType": "struct ATC.Slot[]",
          "name": "",
          "type": "tuple[]"
        }
      ],
      "stateMutability": "view",
      "type": "function",
      "constant": true
    },
    {
      "inputs": [
        {
          "internalType": "address",
          "name": "_procurer",
          "type": "address"
        }
      ],
      "name": "searchProcurerDrops",
      "outputs": [
        {
          "components": [
            {
              "internalType": "string",
              "name": "title",
              "type": "string"
            },
            {
              "internalType": "uint256",
              "name": "price",
              "type": "uint256"
            },
            {
              "internalType": "enum ATC.DropStatus",
              "name": "dropStatus",
              "type": "uint8"
            }
          ],
          "internalType": "struct ATC.Drop[]",
          "name": "",
          "type": "tuple[]"
        }
      ],
      "stateMutability": "view",
      "type": "function",
      "constant": true
    },
    {
      "inputs": [
        {
          "internalType": "uint256",
          "name": "_dropIndex",
          "type": "uint256"
        },
        {
          "internalType": "uint256",
          "name": "_slotIndex",
          "type": "uint256"
        }
      ],
      "name": "markSuccessful",
      "outputs": [],
      "stateMutability": "nonpayable",
      "type": "function"
    },
    {
      "inputs": [
        {
          "internalType": "uint256",
          "name": "_dropIndex",
          "type": "uint256"
        },
        {
          "internalType": "uint256",
          "name": "_slotIndex",
          "type": "uint256"
        }
      ],
      "name": "markFailed",
      "outputs": [],
      "stateMutability": "nonpayable",
      "type": "function"
    }
  ],
  "bytecode": "0x60806040523480156200001157600080fd5b5060405162002b8b38038062002b8b8339818101604052810190620000379190620001ec565b6040518060400160405280828152602001600060018111156200005657fe5b8152506000803373ffffffffffffffffffffffffffffffffffffffff1673ffffffffffffffffffffffffffffffffffffffff1681526020019081526020016000206000820151816000019080519060200190620000b5929190620000ea565b5060208201518160010160006101000a81548160ff02191690836001811115620000db57fe5b021790555090505050620002c2565b828054600181600116156101000203166002900490600052602060002090601f016020900481019282601f106200012d57805160ff19168380011785556200015e565b828001600101855582156200015e579182015b828111156200015d57825182559160200191906001019062000140565b5b5090506200016d919062000171565b5090565b5b808211156200018c57600081600090555060010162000172565b5090565b600082601f830112620001a257600080fd5b8151620001b9620001b3826200025f565b62000231565b91508082526020830160208301858383011115620001d657600080fd5b620001e38382846200028c565b50505092915050565b600060208284031215620001ff57600080fd5b600082015167ffffffffffffffff8111156200021a57600080fd5b620002288482850162000190565b91505092915050565b6000604051905081810181811067ffffffffffffffff821117156200025557600080fd5b8060405250919050565b600067ffffffffffffffff8211156200027757600080fd5b601f19601f8301169050602081019050919050565b60005b83811015620002ac5780820151818401526020810190506200028f565b83811115620002bc576000848401525b50505050565b6128b980620002d26000396000f3fe6080604052600436106100dd5760003560e01c8063a1cd51c71161007f578063e52394da11610059578063e52394da146102e2578063f2c298be1461030b578063fab2c46914610334578063fe1d99741461035f576100dd565b8063a1cd51c71461025f578063c206dc6c14610288578063c8910913146102a4576100dd565b80635c855a5b116100bb5780635c855a5b146101735780637b9c5d18146101b55780638691afb5146101f25780639a43c4771461021d576100dd565b806339a5c51d146100e25780634b68d4311461012157806359d20a591461014a575b600080fd5b3480156100ee57600080fd5b5061010960048036038101906101049190611eca565b61039c565b6040516101189392919061258e565b60405180910390f35b34801561012d57600080fd5b5061014860048036038101906101439190611e76565b610485565b005b34801561015657600080fd5b50610171600480360381019061016c91906120a6565b6105d7565b005b34801561017f57600080fd5b5061019a60048036038101906101959190611f99565b6108dc565b6040516101ac969594939291906124ab565b60405180910390f35b3480156101c157600080fd5b506101dc60048036038101906101d79190611e4d565b610aa9565b6040516101e9919061251a565b60405180910390f35b3480156101fe57600080fd5b50610207610c20565b604051610214919061251a565b60405180910390f35b34801561022957600080fd5b50610244600480360381019061023f9190611eca565b610d95565b604051610256969594939291906124ab565b60405180910390f35b34801561026b57600080fd5b50610286600480360381019061028191906120a6565b610f55565b005b6102a2600480360381019061029d9190611f06565b6111ce565b005b3480156102b057600080fd5b506102cb60048036038101906102c69190611e4d565b61155e565b6040516102d992919061255e565b60405180910390f35b3480156102ee57600080fd5b5061030960048036038101906103049190612029565b611627565b005b34801561031757600080fd5b50610332600480360381019061032d9190611fe8565b61170c565b005b34801561034057600080fd5b506103496117b6565b604051610356919061253c565b60405180910390f35b34801561036b57600080fd5b506103866004803603810190610381919061207d565b611a3e565b604051610393919061253c565b60405180910390f35b600160205281600052604060002081815481106103b557fe5b906000526020600020906003020160009150915050806000018054600181600116156101000203166002900480601f0160208091040260200160405190810160405280929190818152602001828054600181600116156101000203166002900480156104625780601f1061043757610100808354040283529160200191610462565b820191906000526020600020905b81548152906001019060200180831161044557829003601f168201915b5050505050908060010154908060020160009054906101000a900460ff16905083565b6000600181111561049257fe5b6000803373ffffffffffffffffffffffffffffffffffffffff1673ffffffffffffffffffffffffffffffffffffffff16815260200190815260200160002060010160009054906101000a900460ff1660018111156104ec57fe5b1461052c576040517f08c379a0000000000000000000000000000000000000000000000000000000008152600401610523906125ec565b60405180910390fd5b604051806040016040528082815260200160018081111561054957fe5b8152506000808473ffffffffffffffffffffffffffffffffffffffff1673ffffffffffffffffffffffffffffffffffffffff16815260200190815260200160002060008201518160000190805190602001906105a6929190611cd9565b5060208201518160010160006101000a81548160ff021916908360018111156105cb57fe5b02179055509050505050565b60001515600360003373ffffffffffffffffffffffffffffffffffffffff1673ffffffffffffffffffffffffffffffffffffffff1681526020019081526020016000206000848152602001908152602001600020828154811061063657fe5b906000526020600020906004020160000160149054906101000a900460ff16151514610697576040517f08c379a000000000000000000000000000000000000000000000000000000000815260040161068e9061260c565b60405180910390fd5b600360003373ffffffffffffffffffffffffffffffffffffffff1673ffffffffffffffffffffffffffffffffffffffff168152602001908152602001600020600083815260200190815260200160002081815481106106f257fe5b906000526020600020906004020160000160009054906101000a900473ffffffffffffffffffffffffffffffffffffffff1673ffffffffffffffffffffffffffffffffffffffff166108fc600160003373ffffffffffffffffffffffffffffffffffffffff1673ffffffffffffffffffffffffffffffffffffffff168152602001908152602001600020848154811061078757fe5b9060005260206000209060030201600101549081150290604051600060405180830381858888f193505050501580156107c4573d6000803e3d6000fd5b506002600360003373ffffffffffffffffffffffffffffffffffffffff1673ffffffffffffffffffffffffffffffffffffffff1681526020019081526020016000206000848152602001908152602001600020828154811061082257fe5b906000526020600020906004020160000160156101000a81548160ff0219169083600281111561084e57fe5b02179055506001600360003373ffffffffffffffffffffffffffffffffffffffff1673ffffffffffffffffffffffffffffffffffffffff168152602001908152602001600020600084815260200190815260200160002082815481106108b057fe5b906000526020600020906004020160000160146101000a81548160ff0219169083151502179055505050565b6003602052826000526040600020602052816000526040600020818154811061090157fe5b906000526020600020906004020160009250925050508060000160009054906101000a900473ffffffffffffffffffffffffffffffffffffffff16908060000160149054906101000a900460ff16908060000160159054906101000a900460ff1690806001018054600181600116156101000203166002900480601f0160208091040260200160405190810160405280929190818152602001828054600181600116156101000203166002900480156109fb5780601f106109d0576101008083540402835291602001916109fb565b820191906000526020600020905b8154815290600101906020018083116109de57829003601f168201915b505050505090806002018054600181600116156101000203166002900480601f016020809104026020016040519081016040528092919081815260200182805460018160011615610100020316600290048015610a995780601f10610a6e57610100808354040283529160200191610a99565b820191906000526020600020905b815481529060010190602001808311610a7c57829003601f168201915b5050505050908060030154905086565b6060600160008373ffffffffffffffffffffffffffffffffffffffff1673ffffffffffffffffffffffffffffffffffffffff168152602001908152602001600020805480602002602001604051908101604052809291908181526020016000905b82821015610c155783829060005260206000209060030201604051806060016040529081600082018054600181600116156101000203166002900480601f016020809104026020016040519081016040528092919081815260200182805460018160011615610100020316600290048015610bc65780601f10610b9b57610100808354040283529160200191610bc6565b820191906000526020600020905b815481529060010190602001808311610ba957829003601f168201915b50505050508152602001600182015481526020016002820160009054906101000a900460ff166001811115610bf757fe5b6001811115610c0257fe5b8152505081526020019060010190610b0a565b505050509050919050565b6060600160003373ffffffffffffffffffffffffffffffffffffffff1673ffffffffffffffffffffffffffffffffffffffff168152602001908152602001600020805480602002602001604051908101604052809291908181526020016000905b82821015610d8c5783829060005260206000209060030201604051806060016040529081600082018054600181600116156101000203166002900480601f016020809104026020016040519081016040528092919081815260200182805460018160011615610100020316600290048015610d3d5780601f10610d1257610100808354040283529160200191610d3d565b820191906000526020600020905b815481529060010190602001808311610d2057829003601f168201915b50505050508152602001600182015481526020016002820160009054906101000a900460ff166001811115610d6e57fe5b6001811115610d7957fe5b8152505081526020019060010190610c81565b50505050905090565b60026020528160005260406000208181548110610dae57fe5b9060005260206000209060040201600091509150508060000160009054906101000a900473ffffffffffffffffffffffffffffffffffffffff16908060000160149054906101000a900460ff16908060000160159054906101000a900460ff1690806001018054600181600116156101000203166002900480601f016020809104026020016040519081016040528092919081815260200182805460018160011615610100020316600290048015610ea75780601f10610e7c57610100808354040283529160200191610ea7565b820191906000526020600020905b815481529060010190602001808311610e8a57829003601f168201915b505050505090806002018054600181600116156101000203166002900480601f016020809104026020016040519081016040528092919081815260200182805460018160011615610100020316600290048015610f455780601f10610f1a57610100808354040283529160200191610f45565b820191906000526020600020905b815481529060010190602001808311610f2857829003601f168201915b5050505050908060030154905086565b60001515600360003373ffffffffffffffffffffffffffffffffffffffff1673ffffffffffffffffffffffffffffffffffffffff16815260200190815260200160002060008481526020019081526020016000208281548110610fb457fe5b906000526020600020906004020160000160149054906101000a900460ff16151514611015576040517f08c379a000000000000000000000000000000000000000000000000000000000815260040161100c9061260c565b60405180910390fd5b3373ffffffffffffffffffffffffffffffffffffffff166108fc600160003373ffffffffffffffffffffffffffffffffffffffff1673ffffffffffffffffffffffffffffffffffffffff168152602001908152602001600020848154811061107957fe5b9060005260206000209060030201600101549081150290604051600060405180830381858888f193505050501580156110b6573d6000803e3d6000fd5b506001600360003373ffffffffffffffffffffffffffffffffffffffff1673ffffffffffffffffffffffffffffffffffffffff1681526020019081526020016000206000848152602001908152602001600020828154811061111457fe5b906000526020600020906004020160000160156101000a81548160ff0219169083600281111561114057fe5b02179055506001600360003373ffffffffffffffffffffffffffffffffffffffff1673ffffffffffffffffffffffffffffffffffffffff168152602001908152602001600020600084815260200190815260200160002082815481106111a257fe5b906000526020600020906004020160000160146101000a81548160ff0219169083151502179055505050565b600160008573ffffffffffffffffffffffffffffffffffffffff1673ffffffffffffffffffffffffffffffffffffffff168152602001908152602001600020838154811061121857fe5b90600052602060002090600302016001015434101561126c576040517f08c379a0000000000000000000000000000000000000000000000000000000008152600401611263906125cc565b60405180910390fd5b611274611d59565b6040518060c001604052803373ffffffffffffffffffffffffffffffffffffffff168152602001600015158152602001600060028111156112b157fe5b8152602001848152602001838152602001348152509050600360008673ffffffffffffffffffffffffffffffffffffffff1673ffffffffffffffffffffffffffffffffffffffff168152602001908152602001600020600085815260200190815260200160002081908060018154018082558091505060019003906000526020600020906004020160009091909190915060008201518160000160006101000a81548173ffffffffffffffffffffffffffffffffffffffff021916908373ffffffffffffffffffffffffffffffffffffffff16021790555060208201518160000160146101000a81548160ff02191690831515021790555060408201518160000160156101000a81548160ff021916908360028111156113cd57fe5b021790555060608201518160010190805190602001906113ee929190611cd9565b50608082015181600201908051906020019061140b929190611cd9565b5060a082015181600301555050600260003373ffffffffffffffffffffffffffffffffffffffff1673ffffffffffffffffffffffffffffffffffffffff16815260200190815260200160002081908060018154018082558091505060019003906000526020600020906004020160009091909190915060008201518160000160006101000a81548173ffffffffffffffffffffffffffffffffffffffff021916908373ffffffffffffffffffffffffffffffffffffffff16021790555060208201518160000160146101000a81548160ff02191690831515021790555060408201518160000160156101000a81548160ff0219169083600281111561150c57fe5b0217905550606082015181600101908051906020019061152d929190611cd9565b50608082015181600201908051906020019061154a929190611cd9565b5060a0820151816003015550505050505050565b6000602052806000526040600020600091509050806000018054600181600116156101000203166002900480601f01602080910402602001604051908101604052809291908181526020018280546001816001161561010002031660029004801561160a5780601f106115df5761010080835404028352916020019161160a565b820191906000526020600020905b8154815290600101906020018083116115ed57829003601f168201915b5050505050908060010160009054906101000a900460ff16905082565b600160003373ffffffffffffffffffffffffffffffffffffffff1673ffffffffffffffffffffffffffffffffffffffff16815260200190815260200160002060405180606001604052808481526020018381526020016000600181111561168a57fe5b815250908060018154018082558091505060019003906000526020600020906003020160009091909190915060008201518160000190805190602001906116d2929190611cd9565b506020820151816001015560408201518160020160006101000a81548160ff0219169083600181111561170157fe5b021790555050505050565b604051806040016040528082815260200160018081111561172957fe5b8152506000803373ffffffffffffffffffffffffffffffffffffffff1673ffffffffffffffffffffffffffffffffffffffff1681526020019081526020016000206000820151816000019080519060200190611786929190611cd9565b5060208201518160010160006101000a81548160ff021916908360018111156117ab57fe5b021790555090505050565b6060600260003373ffffffffffffffffffffffffffffffffffffffff1673ffffffffffffffffffffffffffffffffffffffff168152602001908152602001600020805480602002602001604051908101604052809291908181526020016000905b82821015611a3557838290600052602060002090600402016040518060c00160405290816000820160009054906101000a900473ffffffffffffffffffffffffffffffffffffffff1673ffffffffffffffffffffffffffffffffffffffff1673ffffffffffffffffffffffffffffffffffffffff1681526020016000820160149054906101000a900460ff161515151581526020016000820160159054906101000a900460ff1660028111156118c957fe5b60028111156118d457fe5b8152602001600182018054600181600116156101000203166002900480601f0160208091040260200160405190810160405280929190818152602001828054600181600116156101000203166002900480156119715780601f1061194657610100808354040283529160200191611971565b820191906000526020600020905b81548152906001019060200180831161195457829003601f168201915b50505050508152602001600282018054600181600116156101000203166002900480601f016020809104026020016040519081016040528092919081815260200182805460018160011615610100020316600290048015611a135780601f106119e857610100808354040283529160200191611a13565b820191906000526020600020905b8154815290600101906020018083116119f657829003601f168201915b5050505050815260200160038201548152505081526020019060010190611817565b50505050905090565b6060600360003373ffffffffffffffffffffffffffffffffffffffff1673ffffffffffffffffffffffffffffffffffffffff1681526020019081526020016000206000838152602001908152602001600020805480602002602001604051908101604052809291908181526020016000905b82821015611cce57838290600052602060002090600402016040518060c00160405290816000820160009054906101000a900473ffffffffffffffffffffffffffffffffffffffff1673ffffffffffffffffffffffffffffffffffffffff1673ffffffffffffffffffffffffffffffffffffffff1681526020016000820160149054906101000a900460ff161515151581526020016000820160159054906101000a900460ff166002811115611b6257fe5b6002811115611b6d57fe5b8152602001600182018054600181600116156101000203166002900480601f016020809104026020016040519081016040528092919081815260200182805460018160011615610100020316600290048015611c0a5780601f10611bdf57610100808354040283529160200191611c0a565b820191906000526020600020905b815481529060010190602001808311611bed57829003601f168201915b50505050508152602001600282018054600181600116156101000203166002900480601f016020809104026020016040519081016040528092919081815260200182805460018160011615610100020316600290048015611cac5780601f10611c8157610100808354040283529160200191611cac565b820191906000526020600020905b815481529060010190602001808311611c8f57829003601f168201915b5050505050815260200160038201548152505081526020019060010190611ab0565b505050509050919050565b828054600181600116156101000203166002900490600052602060002090601f016020900481019282601f10611d1a57805160ff1916838001178555611d48565b82800160010185558215611d48579182015b82811115611d47578251825591602001919060010190611d2c565b5b509050611d559190611db2565b5090565b6040518060c00160405280600073ffffffffffffffffffffffffffffffffffffffff16815260200160001515815260200160006002811115611d9757fe5b81526020016060815260200160608152602001600081525090565b5b80821115611dcb576000816000905550600101611db3565b5090565b600081359050611dde81612855565b92915050565b600082601f830112611df557600080fd5b8135611e08611e0382612659565b61262c565b91508082526020830160208301858383011115611e2457600080fd5b611e2f8382846127db565b50505092915050565b600081359050611e478161286c565b92915050565b600060208284031215611e5f57600080fd5b6000611e6d84828501611dcf565b91505092915050565b60008060408385031215611e8957600080fd5b6000611e9785828601611dcf565b925050602083013567ffffffffffffffff811115611eb457600080fd5b611ec085828601611de4565b9150509250929050565b60008060408385031215611edd57600080fd5b6000611eeb85828601611dcf565b9250506020611efc85828601611e38565b9150509250929050565b60008060008060808587031215611f1c57600080fd5b6000611f2a87828801611dcf565b9450506020611f3b87828801611e38565b935050604085013567ffffffffffffffff811115611f5857600080fd5b611f6487828801611de4565b925050606085013567ffffffffffffffff811115611f8157600080fd5b611f8d87828801611de4565b91505092959194509250565b600080600060608486031215611fae57600080fd5b6000611fbc86828701611dcf565b9350506020611fcd86828701611e38565b9250506040611fde86828701611e38565b9150509250925092565b600060208284031215611ffa57600080fd5b600082013567ffffffffffffffff81111561201457600080fd5b61202084828501611de4565b91505092915050565b6000806040838503121561203c57600080fd5b600083013567ffffffffffffffff81111561205657600080fd5b61206285828601611de4565b925050602061207385828601611e38565b9150509250929050565b60006020828403121561208f57600080fd5b600061209d84828501611e38565b91505092915050565b600080604083850312156120b957600080fd5b60006120c785828601611e38565b92505060206120d885828601611e38565b9150509250929050565b60006120ee83836123ad565b905092915050565b600061210283836123fd565b905092915050565b61211381612724565b82525050565b61212281612724565b82525050565b6000612133826126a5565b61213d81856126e0565b93508360208202850161214f85612685565b8060005b8581101561218b578484038952815161216c85826120e2565b9450612177836126c6565b925060208a01995050600181019050612153565b50829750879550505050505092915050565b60006121a8826126b0565b6121b281856126f1565b9350836020820285016121c485612695565b8060005b8581101561220057848403895281516121e185826120f6565b94506121ec836126d3565b925060208a019950506001810190506121c8565b50829750879550505050505092915050565b61221b81612736565b82525050565b61222a81612736565b82525050565b612239816127a5565b82525050565b612248816127a5565b82525050565b612257816127b7565b82525050565b612266816127c9565b82525050565b612275816127c9565b82525050565b6000612286826126bb565b6122908185612702565b93506122a08185602086016127ea565b6122a98161281d565b840191505092915050565b60006122bf826126bb565b6122c98185612713565b93506122d98185602086016127ea565b6122e28161281d565b840191505092915050565b60006122fa601a83612713565b91507f506c6561736520706179207468652065786163742070726963650000000000006000830152602082019050919050565b600061233a600c83612713565b91507f41646d696e73206f6e6c792100000000000000000000000000000000000000006000830152602082019050919050565b600061237a601183612713565b91507f416c72656164792050616964204f7574210000000000000000000000000000006000830152602082019050919050565b600060608301600083015184820360008601526123ca828261227b565b91505060208301516123df602086018261248d565b5060408301516123f26040860182612230565b508091505092915050565b600060c083016000830151612415600086018261210a565b5060208301516124286020860182612212565b50604083015161243b604086018261225d565b5060608301518482036060860152612453828261227b565b9150506080830151848203608086015261246d828261227b565b91505060a083015161248260a086018261248d565b508091505092915050565b6124968161279b565b82525050565b6124a58161279b565b82525050565b600060c0820190506124c06000830189612119565b6124cd6020830188612221565b6124da604083018761226c565b81810360608301526124ec81866122b4565b9050818103608083015261250081856122b4565b905061250f60a083018461249c565b979650505050505050565b600060208201905081810360008301526125348184612128565b905092915050565b60006020820190508181036000830152612556818461219d565b905092915050565b6000604082019050818103600083015261257881856122b4565b9050612587602083018461224e565b9392505050565b600060608201905081810360008301526125a881866122b4565b90506125b7602083018561249c565b6125c4604083018461223f565b949350505050565b600060208201905081810360008301526125e5816122ed565b9050919050565b600060208201905081810360008301526126058161232d565b9050919050565b600060208201905081810360008301526126258161236d565b9050919050565b6000604051905081810181811067ffffffffffffffff8211171561264f57600080fd5b8060405250919050565b600067ffffffffffffffff82111561267057600080fd5b601f19601f8301169050602081019050919050565b6000819050602082019050919050565b6000819050602082019050919050565b600081519050919050565b600081519050919050565b600081519050919050565b6000602082019050919050565b6000602082019050919050565b600082825260208201905092915050565b600082825260208201905092915050565b600082825260208201905092915050565b600082825260208201905092915050565b600061272f8261277b565b9050919050565b60008115159050919050565b60008190506127508261282e565b919050565b60008190506127638261283b565b919050565b600081905061277682612848565b919050565b600073ffffffffffffffffffffffffffffffffffffffff82169050919050565b6000819050919050565b60006127b082612742565b9050919050565b60006127c282612755565b9050919050565b60006127d482612768565b9050919050565b82818337600083830152505050565b60005b838110156128085780820151818401526020810190506127ed565b83811115612817576000848401525b50505050565b6000601f19601f8301169050919050565b6002811061283857fe5b50565b6002811061284557fe5b50565b6003811061285257fe5b50565b61285e81612724565b811461286957600080fd5b50565b6128758161279b565b811461288057600080fd5b5056fea26469706673582212200c27056b58673bafdce02edbdf4cf10b9c19af831c2d8dd7423249623aedfd9964736f6c63430007000033",
  "immutableReferences": {},
  "source": "pragma solidity ^0.7.0;\npragma experimental ABIEncoderV2;\n\ncontract ATC {\n    mapping(address => User) public userData;\n    mapping(address => Drop[]) public userDrops;\n    mapping(address => Slot[]) public userSlots;\n    mapping(address => mapping(uint256 => Slot[])) public dropSlots;\n    enum Role {ADMIN, USER}\n    Role currentRole;\n\n    enum DropStatus {OPEN, CLOSED}\n    DropStatus dropStatus;\n\n    enum SlotStatus {PENDING, SUCCESS, FAILED}\n    SlotStatus slotStatus;\n\n    struct User {\n        string username;\n        Role role;\n    }\n\n    struct Drop {\n        string title;\n        uint256 price;\n        DropStatus dropStatus;\n    }\n\n    struct Slot {\n        address customer;\n        bool paidOut;\n        SlotStatus slotStatus;\n        string slotID;\n        string title;\n        uint256 price;\n    }\n\n    modifier adminOnly() {\n        require(userData[msg.sender].role == Role.ADMIN, \"Admins only!\");\n        _;\n    }\n\n    constructor(string memory _username) public {\n        userData[msg.sender] = User(_username, Role.ADMIN);\n    }\n\n    function addUser(address _newUser, string memory _username)\n        public\n        adminOnly\n    {\n        userData[_newUser] = User(_username, Role.USER);\n    }\n\n    function register(string memory _username) public {\n        userData[msg.sender] = User(_username, Role.USER);\n    }\n\n    function addDrop(string memory _title, uint256 _price) public {\n        // userData[_newUser] = User(_username, Role.USER);\n        userDrops[msg.sender].push(Drop(_title, _price, DropStatus.OPEN));\n    }\n\n    function buySlot(\n        address _procurerAddress,\n        uint256 _dropIndex,\n        string memory _slotID,\n        string memory _title\n    ) public payable {\n        require(\n            msg.value >= userDrops[_procurerAddress][_dropIndex].price,\n            \"Please pay the exact price\"\n        );\n        Slot memory newSlot = Slot(\n            msg.sender,\n            false,\n            SlotStatus.PENDING,\n            _slotID,\n            _title,\n            msg.value\n        );\n        dropSlots[_procurerAddress][_dropIndex].push(newSlot);\n        userSlots[msg.sender].push(newSlot);\n    }\n\n    function getDrops() public view returns (Drop[] memory) {\n        return userDrops[msg.sender];\n    }\n\n    function getSlots() public view returns (Slot[] memory) {\n        return userSlots[msg.sender];\n    }\n\n    function getDropSlots(uint256 _dropIndex)\n        public\n        view\n        returns (Slot[] memory)\n    {\n        return dropSlots[msg.sender][_dropIndex];\n    }\n\n    function searchProcurerDrops(address _procurer)\n        public\n        view\n        returns (Drop[] memory)\n    {\n        return userDrops[_procurer];\n    }\n\n    function markSuccessful(uint256 _dropIndex, uint256 _slotIndex) public {\n        // require(deals[dealIndex].paid == false, \"Already Paid out!!\");\n        require(\n            dropSlots[msg.sender][_dropIndex][_slotIndex].paidOut == false,\n            \"Already Paid Out!\"\n        );\n        payable(msg.sender).transfer(userDrops[msg.sender][_dropIndex].price);\n\n        dropSlots[msg.sender][_dropIndex][_slotIndex].slotStatus = SlotStatus\n            .SUCCESS;\n        dropSlots[msg.sender][_dropIndex][_slotIndex].paidOut = true;\n    }\n\n    function markFailed(uint256 _dropIndex, uint256 _slotIndex) public {\n        // require(deals[dealIndex].paid == false, \"Already Paid out!!\");\n        require(\n            dropSlots[msg.sender][_dropIndex][_slotIndex].paidOut == false,\n            \"Already Paid Out!\"\n        );\n\n        payable(dropSlots[msg.sender][_dropIndex][_slotIndex].customer)\n            .transfer(userDrops[msg.sender][_dropIndex].price);\n\n        dropSlots[msg.sender][_dropIndex][_slotIndex].slotStatus = SlotStatus\n            .FAILED;\n        dropSlots[msg.sender][_dropIndex][_slotIndex].paidOut = true;\n    }\n\n}\n",
  "sourcePath": "/Users/camro/Dev/SmrtContracts/atc/contracts/ATC.sol",
  "compiler": {
    "name": "solc",
    "version": "0.7.0+commit.9e61f92b.Emscripten.clang"
  },
  "schemaVersion": "3.3.4",
  "updatedAt": "2021-03-27T21:55:13.655Z",
  "networkType": "ethereum",
  "devdoc": {
    "kind": "dev",
    "methods": {},
    "version": 1
  },
  "userdoc": {
    "kind": "user",
    "methods": {},
    "version": 1
  }
}