{
  "contractName": "ATC",
  "abi": [
    {
      "inputs": [
        {
          "internalType": "string",
          "name": "_title",
          "type": "string"
        },
        {
          "internalType": "uint256",
          "name": "_price",
          "type": "uint256"
        }
      ],
      "stateMutability": "nonpayable",
      "type": "constructor"
    },
    {
      "inputs": [],
      "name": "currState",
      "outputs": [
        {
          "internalType": "enum ATC.State",
          "name": "",
          "type": "uint8"
        }
      ],
      "stateMutability": "view",
      "type": "function",
      "constant": true
    },
    {
      "inputs": [
        {
          "internalType": "uint256",
          "name": "",
          "type": "uint256"
        }
      ],
      "name": "deals",
      "outputs": [
        {
          "internalType": "address",
          "name": "customer",
          "type": "address"
        },
        {
          "internalType": "string",
          "name": "status",
          "type": "string"
        },
        {
          "internalType": "bool",
          "name": "paid",
          "type": "bool"
        }
      ],
      "stateMutability": "view",
      "type": "function",
      "constant": true
    },
    {
      "inputs": [],
      "name": "price",
      "outputs": [
        {
          "internalType": "uint256",
          "name": "",
          "type": "uint256"
        }
      ],
      "stateMutability": "view",
      "type": "function",
      "constant": true
    },
    {
      "inputs": [],
      "name": "procurer",
      "outputs": [
        {
          "internalType": "address payable",
          "name": "",
          "type": "address"
        }
      ],
      "stateMutability": "view",
      "type": "function",
      "constant": true
    },
    {
      "inputs": [],
      "name": "title",
      "outputs": [
        {
          "internalType": "string",
          "name": "",
          "type": "string"
        }
      ],
      "stateMutability": "view",
      "type": "function",
      "constant": true
    },
    {
      "inputs": [],
      "name": "createDeal",
      "outputs": [
        {
          "internalType": "uint256",
          "name": "",
          "type": "uint256"
        }
      ],
      "stateMutability": "payable",
      "type": "function",
      "payable": true
    },
    {
      "inputs": [
        {
          "internalType": "uint256",
          "name": "dealIndex",
          "type": "uint256"
        }
      ],
      "name": "markSuccessful",
      "outputs": [],
      "stateMutability": "nonpayable",
      "type": "function"
    },
    {
      "inputs": [
        {
          "internalType": "uint256",
          "name": "dealIndex",
          "type": "uint256"
        }
      ],
      "name": "markUnsuccessful",
      "outputs": [],
      "stateMutability": "nonpayable",
      "type": "function"
    },
    {
      "inputs": [],
      "name": "closeDrop",
      "outputs": [],
      "stateMutability": "nonpayable",
      "type": "function"
    },
    {
      "inputs": [],
      "name": "getBank",
      "outputs": [
        {
          "internalType": "uint256",
          "name": "",
          "type": "uint256"
        }
      ],
      "stateMutability": "nonpayable",
      "type": "function"
    }
  ],
  "bytecode": "0x60806040523480156200001157600080fd5b50604051620013d7380380620013d7833981810160405260408110156200003757600080fd5b81019080805160405193929190846401000000008211156200005857600080fd5b838201915060208201858111156200006f57600080fd5b82518660018202830111640100000000821117156200008d57600080fd5b8083526020830192505050908051906020019080838360005b83811015620000c3578082015181840152602081019050620000a6565b50505050905090810190601f168015620000f15780820380516001836020036101000a031916815260200191505b506040526020018051906020019092919050505081600090805190602001906200011d9291906200019d565b5033600260006101000a81548173ffffffffffffffffffffffffffffffffffffffff021916908373ffffffffffffffffffffffffffffffffffffffff160217905550670de0b6b3a764000081026001819055506000600260146101000a81548160ff021916908360018111156200019057fe5b0217905550505062000243565b828054600181600116156101000203166002900490600052602060002090601f016020900481019282601f10620001e057805160ff191683800117855562000211565b8280016001018555821562000211579182015b8281111562000210578251825591602001919060010190620001f3565b5b50905062000220919062000224565b5090565b5b808211156200023f57600081600090555060010162000225565b5090565b61118480620002536000396000f3fe6080604052600436106100915760003560e01c806360d704db1161005957806360d704db146102b75780637d0bab5b146102e2578063a035b1fe146102f9578063abb1640c14610324578063afe010431461034257610091565b806303988f841461009657806323e5d0cc146101705780634266810b146101ab5780634a79d50c146101e6578063599cd00c14610276575b600080fd5b3480156100a257600080fd5b506100cf600480360360208110156100b957600080fd5b8101908080359060200190929190505050610378565b604051808473ffffffffffffffffffffffffffffffffffffffff168152602001806020018315158152602001828103825284818151815260200191508051906020019080838360005b83811015610133578082015181840152602081019050610118565b50505050905090810190601f1680156101605780820380516001836020036101000a031916815260200191505b5094505050505060405180910390f35b34801561017c57600080fd5b506101a96004803603602081101561019357600080fd5b8101908080359060200190929190505050610474565b005b3480156101b757600080fd5b506101e4600480360360208110156101ce57600080fd5b81019080803590602001909291905050506106e8565b005b3480156101f257600080fd5b506101fb610940565b6040518080602001828103825283818151815260200191508051906020019080838360005b8381101561023b578082015181840152602081019050610220565b50505050905090810190601f1680156102685780820380516001836020036101000a031916815260200191505b509250505060405180910390f35b34801561028257600080fd5b5061028b6109de565b604051808273ffffffffffffffffffffffffffffffffffffffff16815260200191505060405180910390f35b3480156102c357600080fd5b506102cc610a04565b6040518082815260200191505060405180910390f35b3480156102ee57600080fd5b506102f7610abb565b005b34801561030557600080fd5b5061030e610c22565b6040518082815260200191505060405180910390f35b61032c610c28565b6040518082815260200191505060405180910390f35b34801561034e57600080fd5b50610357610fcb565b6040518082600181111561036757fe5b815260200191505060405180910390f35b6003818154811061038557fe5b90600052602060002090600302016000915090508060000160009054906101000a900473ffffffffffffffffffffffffffffffffffffffff1690806001018054600181600116156101000203166002900480601f0160208091040260200160405190810160405280929190818152602001828054600181600116156101000203166002900480156104575780601f1061042c57610100808354040283529160200191610457565b820191906000526020600020905b81548152906001019060200180831161043a57829003601f168201915b5050505050908060020160009054906101000a900460ff16905083565b600260009054906101000a900473ffffffffffffffffffffffffffffffffffffffff1673ffffffffffffffffffffffffffffffffffffffff163373ffffffffffffffffffffffffffffffffffffffff161461051a576040517f08c379a00000000000000000000000000000000000000000000000000000000081526004018080602001828103825260268152602001806111036026913960400191505060405180910390fd5b600015156003828154811061052b57fe5b906000526020600020906003020160020160009054906101000a900460ff161515146105bf576040517f08c379a00000000000000000000000000000000000000000000000000000000081526004018080602001828103825260128152602001807f416c72656164792050616964206f75742121000000000000000000000000000081525060200191505060405180910390fd5b6040518060400160405280600681526020017f4661696c656400000000000000000000000000000000000000000000000000008152506003828154811061060257fe5b90600052602060002090600302016001019080519060200190610626929190610fde565b506003818154811061063457fe5b906000526020600020906003020160000160009054906101000a900473ffffffffffffffffffffffffffffffffffffffff1673ffffffffffffffffffffffffffffffffffffffff166108fc6001549081150290604051600060405180830381858888f193505050501580156106ad573d6000803e3d6000fd5b506001600382815481106106bd57fe5b906000526020600020906003020160020160006101000a81548160ff02191690831515021790555050565b600260009054906101000a900473ffffffffffffffffffffffffffffffffffffffff1673ffffffffffffffffffffffffffffffffffffffff163373ffffffffffffffffffffffffffffffffffffffff161461078e576040517f08c379a00000000000000000000000000000000000000000000000000000000081526004018080602001828103825260268152602001806111036026913960400191505060405180910390fd5b600015156003828154811061079f57fe5b906000526020600020906003020160020160009054906101000a900460ff16151514610833576040517f08c379a00000000000000000000000000000000000000000000000000000000081526004018080602001828103825260128152602001807f416c72656164792050616964206f75742121000000000000000000000000000081525060200191505060405180910390fd5b6040518060400160405280600881526020017f53756363657373210000000000000000000000000000000000000000000000008152506003828154811061087657fe5b9060005260206000209060030201600101908051906020019061089a929190610fde565b50600260009054906101000a900473ffffffffffffffffffffffffffffffffffffffff1673ffffffffffffffffffffffffffffffffffffffff166108fc6001549081150290604051600060405180830381858888f19350505050158015610905573d6000803e3d6000fd5b5060016003828154811061091557fe5b906000526020600020906003020160020160006101000a81548160ff02191690831515021790555050565b60008054600181600116156101000203166002900480601f0160208091040260200160405190810160405280929190818152602001828054600181600116156101000203166002900480156109d65780601f106109ab576101008083540402835291602001916109d6565b820191906000526020600020905b8154815290600101906020018083116109b957829003601f168201915b505050505081565b600260009054906101000a900473ffffffffffffffffffffffffffffffffffffffff1681565b6000600260009054906101000a900473ffffffffffffffffffffffffffffffffffffffff1673ffffffffffffffffffffffffffffffffffffffff163373ffffffffffffffffffffffffffffffffffffffff1614610aac576040517f08c379a00000000000000000000000000000000000000000000000000000000081526004018080602001828103825260268152602001806111036026913960400191505060405180910390fd5b60015460038054905002905090565b600260009054906101000a900473ffffffffffffffffffffffffffffffffffffffff1673ffffffffffffffffffffffffffffffffffffffff163373ffffffffffffffffffffffffffffffffffffffff1614610b61576040517f08c379a00000000000000000000000000000000000000000000000000000000081526004018080602001828103825260268152602001806111036026913960400191505060405180910390fd5b60006001811115610b6e57fe5b600260149054906101000a900460ff166001811115610b8957fe5b14610bfc576040517f08c379a00000000000000000000000000000000000000000000000000000000081526004018080602001828103825260138152602001807f44726f7020616c726561647920636c6f7365640000000000000000000000000081525060200191505060405180910390fd5b6001600260146101000a81548160ff02191690836001811115610c1b57fe5b0217905550565b60015481565b6000600260009054906101000a900473ffffffffffffffffffffffffffffffffffffffff1673ffffffffffffffffffffffffffffffffffffffff163373ffffffffffffffffffffffffffffffffffffffff161415610cd1576040517f08c379a00000000000000000000000000000000000000000000000000000000081526004018080602001828103825260268152602001806111296026913960400191505060405180910390fd5b60006001811115610cde57fe5b600260149054906101000a900460ff166001811115610cf957fe5b14610d6c576040517f08c379a000000000000000000000000000000000000000000000000000000000815260040180806020018281038252600e8152602001807f41756374696f6e20436c6f73656400000000000000000000000000000000000081525060200191505060405180910390fd5b6001543414610de3576040517f08c379a000000000000000000000000000000000000000000000000000000000815260040180806020018281038252601b8152602001807f506c65617365207061792074686520657861637420616d6f756e74000000000081525060200191505060405180910390fd5b60405180606001604052803373ffffffffffffffffffffffffffffffffffffffff1681526020016040518060400160405280600781526020017f50656e64696e6700000000000000000000000000000000000000000000000000815250815260200160001515815250600460008201518160000160006101000a81548173ffffffffffffffffffffffffffffffffffffffff021916908373ffffffffffffffffffffffffffffffffffffffff1602179055506020820151816001019080519060200190610eb1929190610fde565b5060408201518160020160006101000a81548160ff0219169083151502179055509050506003600490806001815401808255809150506001900390600052602060002090600302016000909190919091506000820160009054906101000a900473ffffffffffffffffffffffffffffffffffffffff168160000160006101000a81548173ffffffffffffffffffffffffffffffffffffffff021916908373ffffffffffffffffffffffffffffffffffffffff16021790555060018201816001019080546001816001161561010002031660029004610f9092919061105e565b506002820160009054906101000a900460ff168160020160006101000a81548160ff0219169083151502179055505050600380549050905090565b600260149054906101000a900460ff1681565b828054600181600116156101000203166002900490600052602060002090601f016020900481019282601f1061101f57805160ff191683800117855561104d565b8280016001018555821561104d579182015b8281111561104c578251825591602001919060010190611031565b5b50905061105a91906110e5565b5090565b828054600181600116156101000203166002900490600052602060002090601f016020900481019282601f1061109757805485556110d4565b828001600101855582156110d457600052602060002091601f016020900482015b828111156110d35782548255916001019190600101906110b8565b5b5090506110e191906110e5565b5090565b5b808211156110fe5760008160009055506001016110e6565b509056fe4f6e6c79207468652070726f63757265722063616e2063616c6c2074686973206d6574686f644f6e6c792074686520637573746f6d65722063616e2063616c6c2074686973206d6574686f64a2646970667358221220edc41b36981bb5359f0afead82b42d1faf613d6fc3690dbf80846b4afb58cf4664736f6c63430007000033",
  "immutableReferences": {},
  "source": "pragma solidity ^0.7.0;\n\n\n\ncontract ATC {\n    string public title;\n    uint public price;\n    address payable public procurer;\n    enum State { OPEN, CLOSED }\n    State public currState;\n    DealStruct[] public deals; \n    \n    \n    struct DealStruct {\n        address customer;\n        string status;\n        bool paid;\n    }\n    DealStruct dealStruct;\n    \n       \n    modifier onlyCustomer() {\n        require(msg.sender != procurer, \"Only the customer can call this method\");\n        _;\n    }\n    \n     modifier onlyProcurer() {\n        require(msg.sender == procurer, \"Only the procurer can call this method\");\n        _;\n    }\n    \n    \n    \n    constructor (string memory _title, uint _price){\n        title = _title;\n        procurer = msg.sender;\n        price = _price * 1000000000000000000;\n        currState = State.OPEN;\n    }\n    \n    \n    function createDeal () public payable onlyCustomer returns(uint){\n        require(currState == State.OPEN, \"Auction Closed\");\n        require(msg.value == price, \"Please pay the exact amount\");\n        // set the new instance\n        dealStruct = DealStruct(msg.sender, \"Pending\", false);\n        // push the auction address to auctions array\n        deals.push(dealStruct);\n        return(deals.length);\n    }\n    \n     function markSuccessful(uint dealIndex) public onlyProcurer {\n        require(deals[dealIndex].paid == false, \"Already Paid out!!\");\n        deals[dealIndex].status = \"Success!\";\n        \n        // TRANFERS WHOLLE BANK\n        \n        payable(procurer).transfer(price);\n        deals[dealIndex].paid = true;\n        // procurer.transfer(address(this).balance);\n        // currState = State.SUCCESS;\n        \n    }\n    \n    function markUnsuccessful(uint dealIndex) public onlyProcurer {\n        require(deals[dealIndex].paid == false, \"Already Paid out!!\");\n        deals[dealIndex].status = \"Failed\";\n        payable(deals[dealIndex].customer).transfer(price);\n        deals[dealIndex].paid = true;\n    }\n    \n    function closeDrop() public onlyProcurer {\n        require(currState == State.OPEN, \"Drop already closed\");\n        currState = State.CLOSED;\n    }\n    \n    function getBank() public onlyProcurer returns(uint) {\n        return(deals.length * price);\n    }\n    \n   \n}\n",
  "sourcePath": "/Users/camro/Dev/SmrtContracts/atc/contracts/ATC.sol",
  "compiler": {
    "name": "solc",
    "version": "0.7.0+commit.9e61f92b.Emscripten.clang"
  },
  "schemaVersion": "3.3.4",
  "updatedAt": "2021-03-21T22:43:02.910Z",
  "networkType": "ethereum",
  "devdoc": {
    "kind": "dev",
    "methods": {},
    "version": 1
  },
  "userdoc": {
    "kind": "user",
    "methods": {},
    "version": 1
  }
}