{
  "contractName": "ATC",
  "abi": [
    {
      "inputs": [
        {
          "internalType": "string",
          "name": "_product",
          "type": "string"
        },
        {
          "internalType": "uint256",
          "name": "_price",
          "type": "uint256"
        }
      ],
      "stateMutability": "nonpayable",
      "type": "constructor"
    },
    {
      "inputs": [],
      "name": "currState",
      "outputs": [
        {
          "internalType": "enum ATC.State",
          "name": "",
          "type": "uint8"
        }
      ],
      "stateMutability": "view",
      "type": "function",
      "constant": true
    },
    {
      "inputs": [],
      "name": "customer",
      "outputs": [
        {
          "internalType": "address payable",
          "name": "",
          "type": "address"
        }
      ],
      "stateMutability": "view",
      "type": "function",
      "constant": true
    },
    {
      "inputs": [],
      "name": "price",
      "outputs": [
        {
          "internalType": "uint256",
          "name": "",
          "type": "uint256"
        }
      ],
      "stateMutability": "view",
      "type": "function",
      "constant": true
    },
    {
      "inputs": [],
      "name": "procurer",
      "outputs": [
        {
          "internalType": "address payable",
          "name": "",
          "type": "address"
        }
      ],
      "stateMutability": "view",
      "type": "function",
      "constant": true
    },
    {
      "inputs": [],
      "name": "product",
      "outputs": [
        {
          "internalType": "string",
          "name": "",
          "type": "string"
        }
      ],
      "stateMutability": "view",
      "type": "function",
      "constant": true
    },
    {
      "inputs": [],
      "name": "deposit",
      "outputs": [],
      "stateMutability": "payable",
      "type": "function",
      "payable": true
    },
    {
      "inputs": [],
      "name": "markSuccessful",
      "outputs": [],
      "stateMutability": "nonpayable",
      "type": "function"
    },
    {
      "inputs": [],
      "name": "markUnsuccessful",
      "outputs": [],
      "stateMutability": "nonpayable",
      "type": "function"
    },
    {
      "inputs": [],
      "name": "getContractBank",
      "outputs": [
        {
          "internalType": "uint256",
          "name": "",
          "type": "uint256"
        }
      ],
      "stateMutability": "nonpayable",
      "type": "function"
    },
    {
      "inputs": [],
      "name": "getProductDetails",
      "outputs": [
        {
          "internalType": "uint256",
          "name": "",
          "type": "uint256"
        },
        {
          "internalType": "string",
          "name": "",
          "type": "string"
        }
      ],
      "stateMutability": "nonpayable",
      "type": "function"
    }
  ],
  "bytecode": "0x608060405234801561001057600080fd5b50604051610cfb380380610cfb8339818101604052604081101561003357600080fd5b810190808051604051939291908464010000000082111561005357600080fd5b8382019150602082018581111561006957600080fd5b825186600182028301116401000000008211171561008657600080fd5b8083526020830192505050908051906020019080838360005b838110156100ba57808201518184015260208101905061009f565b50505050905090810190601f1680156100e75780820380516001836020036101000a031916815260200191505b506040526020018051906020019092919050505033600160006101000a81548173ffffffffffffffffffffffffffffffffffffffff021916908373ffffffffffffffffffffffffffffffffffffffff160217905550806002819055508160039080519060200190610159929190610184565b5060008060006101000a81548160ff0219169083600581111561017857fe5b02179055505050610221565b828054600181600116156101000203166002900490600052602060002090601f016020900481019282601f106101c557805160ff19168380011785556101f3565b828001600101855582156101f3579182015b828111156101f25782518255916020019190600101906101d7565b5b5090506102009190610204565b5090565b5b8082111561021d576000816000905550600101610205565b5090565b610acb806102306000396000f3fe6080604052600436106100915760003560e01c80639a5cc776116100595780639a5cc776146101f1578063a035b1fe14610208578063afe0104314610233578063bf9ce95214610269578063d0e30db0146102f957610091565b8063089510ed146100965780632108e163146100c157806323bc839b146100d85780632804b2c01461016f578063599cd00c146101b0575b600080fd5b3480156100a257600080fd5b506100ab610303565b6040518082815260200191505060405180910390f35b3480156100cd57600080fd5b506100d66103b1565b005b3480156100e457600080fd5b506100ed61057e565b6040518083815260200180602001828103825283818151815260200191508051906020019080838360005b83811015610133578082015181840152602081019050610118565b50505050905090810190601f1680156101605780820380516001836020036101000a031916815260200191505b50935050505060405180910390f35b34801561017b57600080fd5b5061018461062b565b604051808273ffffffffffffffffffffffffffffffffffffffff16815260200191505060405180910390f35b3480156101bc57600080fd5b506101c5610651565b604051808273ffffffffffffffffffffffffffffffffffffffff16815260200191505060405180910390f35b3480156101fd57600080fd5b50610206610677565b005b34801561021457600080fd5b5061021d610844565b6040518082815260200191505060405180910390f35b34801561023f57600080fd5b5061024861084a565b6040518082600581111561025857fe5b815260200191505060405180910390f35b34801561027557600080fd5b5061027e61085b565b6040518080602001828103825283818151815260200191508051906020019080838360005b838110156102be5780820151818401526020810190506102a3565b50505050905090810190601f1680156102eb5780820380516001836020036101000a031916815260200191505b509250505060405180910390f35b6103016108f9565b005b6000600160009054906101000a900473ffffffffffffffffffffffffffffffffffffffff1673ffffffffffffffffffffffffffffffffffffffff163373ffffffffffffffffffffffffffffffffffffffff16146103ab576040517f08c379a0000000000000000000000000000000000000000000000000000000008152600401808060200182810382526026815260200180610a706026913960400191505060405180910390fd5b47905090565b600160009054906101000a900473ffffffffffffffffffffffffffffffffffffffff1673ffffffffffffffffffffffffffffffffffffffff163373ffffffffffffffffffffffffffffffffffffffff1614610457576040517f08c379a0000000000000000000000000000000000000000000000000000000008152600401808060200182810382526026815260200180610a706026913960400191505060405180910390fd5b6001600581111561046457fe5b60008054906101000a900460ff16600581111561047d57fe5b146104f0576040517f08c379a000000000000000000000000000000000000000000000000000000000815260040180806020018281038252600c8152602001807f4e6f74207061696420796574000000000000000000000000000000000000000081525060200191505060405180910390fd5b600160009054906101000a900473ffffffffffffffffffffffffffffffffffffffff1673ffffffffffffffffffffffffffffffffffffffff166108fc479081150290604051600060405180830381858888f19350505050158015610558573d6000803e3d6000fd5b5060036000806101000a81548160ff0219169083600581111561057757fe5b0217905550565b600060606002546003808054600181600116156101000203166002900480601f01602080910402602001604051908101604052809291908181526020018280546001816001161561010002031660029004801561061c5780601f106105f15761010080835404028352916020019161061c565b820191906000526020600020905b8154815290600101906020018083116105ff57829003601f168201915b50505050509050915091509091565b600060019054906101000a900473ffffffffffffffffffffffffffffffffffffffff1681565b600160009054906101000a900473ffffffffffffffffffffffffffffffffffffffff1681565b600160009054906101000a900473ffffffffffffffffffffffffffffffffffffffff1673ffffffffffffffffffffffffffffffffffffffff163373ffffffffffffffffffffffffffffffffffffffff161461071d576040517f08c379a0000000000000000000000000000000000000000000000000000000008152600401808060200182810382526026815260200180610a706026913960400191505060405180910390fd5b6001600581111561072a57fe5b60008054906101000a900460ff16600581111561074357fe5b146107b6576040517f08c379a000000000000000000000000000000000000000000000000000000000815260040180806020018281038252600c8152602001807f4e6f74207061696420796574000000000000000000000000000000000000000081525060200191505060405180910390fd5b600060019054906101000a900473ffffffffffffffffffffffffffffffffffffffff1673ffffffffffffffffffffffffffffffffffffffff166108fc479081150290604051600060405180830381858888f1935050505015801561081e573d6000803e3d6000fd5b5060026000806101000a81548160ff0219169083600581111561083d57fe5b0217905550565b60025481565b60008054906101000a900460ff1681565b60038054600181600116156101000203166002900480601f0160208091040260200160405190810160405280929190818152602001828054600181600116156101000203166002900480156108f15780601f106108c6576101008083540402835291602001916108f1565b820191906000526020600020905b8154815290600101906020018083116108d457829003601f168201915b505050505081565b6000600581111561090657fe5b60008054906101000a900460ff16600581111561091f57fe5b14610992576040517f08c379a000000000000000000000000000000000000000000000000000000000815260040180806020018281038252600d8152602001807f416c72656164792050616964210000000000000000000000000000000000000081525060200191505060405180910390fd5b6002543414610a09576040517f08c379a000000000000000000000000000000000000000000000000000000000815260040180806020018281038252601b8152602001807f506c656173652073656e6420746865206578616374207072696365000000000081525060200191505060405180910390fd5b33600060016101000a81548173ffffffffffffffffffffffffffffffffffffffff021916908373ffffffffffffffffffffffffffffffffffffffff16021790555060016000806101000a81548160ff02191690836005811115610a6857fe5b021790555056fe4f6e6c79207468652070726f63757265722063616e2063616c6c2074686973206d6574686f64a26469706673582212201a7cbf027d0646b0c8ff43cc1930908ea921a6998fb0f8e5004682de9e9d537764736f6c63430007000033",
  "immutableReferences": {},
  "source": "pragma solidity ^0.7.0;\n\n\ncontract ATC {\n    enum State { AWAITING_PAYMENT, FUNDS_ADDED, FAILED, SUCCESS, EXPIRED, COMPLETE }\n    State public currState;\n    address payable public customer;\n    address payable public procurer;\n    uint public price;\n    string public product;\n    // uint public bank = address(this).balance;\n    \n    constructor(string memory _product, uint _price) {\n        procurer = msg.sender;\n        price = _price;\n        product = _product;\n        currState = State.AWAITING_PAYMENT;\n    }\n    \n      \n    modifier onlyCustomer() {\n        require(msg.sender == customer, \"Only the customer can call this method\");\n        _;\n    }\n    \n     modifier onlyProcurer() {\n        require(msg.sender == procurer, \"Only the procurer can call this method\");\n        _;\n    }\n    \n    \n    \n    function deposit() public payable {\n        require(currState == State.AWAITING_PAYMENT, \"Already Paid!\");\n        require(msg.value == price, \"Please send the exact price\");\n        customer = msg.sender;\n        currState = State.FUNDS_ADDED;\n    }\n    \n    function markSuccessful() public onlyProcurer {\n        require(currState == State.FUNDS_ADDED, \"Not paid yet\");\n        payable(procurer).transfer(address(this).balance);\n        // procurer.transfer(address(this).balance);\n        currState = State.SUCCESS;\n    }\n    \n    function markUnsuccessful() public onlyProcurer {\n        require(currState == State.FUNDS_ADDED, \"Not paid yet\");\n        payable(customer).transfer(address(this).balance);\n        currState = State.FAILED;\n    }\n    \n    function getContractBank() public onlyProcurer returns(uint) {\n        return(address(this).balance);\n    }\n\n\n    function getProductDetails() public returns(uint, string memory) {\n        return(price, product);\n    }\n}",
  "sourcePath": "/Users/camro/Dev/SmrtContracts/atc/contracts/ATC.sol",
  "compiler": {
    "name": "solc",
    "version": "0.7.0+commit.9e61f92b.Emscripten.clang"
  },
  "schemaVersion": "3.3.4",
  "updatedAt": "2021-03-21T20:08:21.245Z",
  "networkType": "ethereum",
  "devdoc": {
    "kind": "dev",
    "methods": {},
    "version": 1
  },
  "userdoc": {
    "kind": "user",
    "methods": {},
    "version": 1
  }
}