{
  "contractName": "ATC",
  "abi": [
    {
      "inputs": [
        {
          "internalType": "string",
          "name": "_username",
          "type": "string"
        }
      ],
      "stateMutability": "nonpayable",
      "type": "constructor"
    },
    {
      "inputs": [
        {
          "internalType": "address",
          "name": "",
          "type": "address"
        },
        {
          "internalType": "uint256",
          "name": "",
          "type": "uint256"
        },
        {
          "internalType": "uint256",
          "name": "",
          "type": "uint256"
        }
      ],
      "name": "dropSlots",
      "outputs": [
        {
          "internalType": "address",
          "name": "customer",
          "type": "address"
        },
        {
          "internalType": "bool",
          "name": "paidOut",
          "type": "bool"
        },
        {
          "internalType": "enum ATC.SlotStatus",
          "name": "slotStatus",
          "type": "uint8"
        },
        {
          "internalType": "string",
          "name": "slotID",
          "type": "string"
        },
        {
          "internalType": "string",
          "name": "title",
          "type": "string"
        },
        {
          "internalType": "uint256",
          "name": "price",
          "type": "uint256"
        }
      ],
      "stateMutability": "view",
      "type": "function",
      "constant": true
    },
    {
      "inputs": [
        {
          "internalType": "address",
          "name": "",
          "type": "address"
        }
      ],
      "name": "userData",
      "outputs": [
        {
          "internalType": "string",
          "name": "username",
          "type": "string"
        },
        {
          "internalType": "enum ATC.Role",
          "name": "role",
          "type": "uint8"
        }
      ],
      "stateMutability": "view",
      "type": "function",
      "constant": true
    },
    {
      "inputs": [
        {
          "internalType": "address",
          "name": "",
          "type": "address"
        },
        {
          "internalType": "uint256",
          "name": "",
          "type": "uint256"
        }
      ],
      "name": "userDrops",
      "outputs": [
        {
          "internalType": "string",
          "name": "title",
          "type": "string"
        },
        {
          "internalType": "uint256",
          "name": "price",
          "type": "uint256"
        },
        {
          "internalType": "enum ATC.DropStatus",
          "name": "dropStatus",
          "type": "uint8"
        }
      ],
      "stateMutability": "view",
      "type": "function",
      "constant": true
    },
    {
      "inputs": [
        {
          "internalType": "address",
          "name": "",
          "type": "address"
        },
        {
          "internalType": "uint256",
          "name": "",
          "type": "uint256"
        }
      ],
      "name": "userSlots",
      "outputs": [
        {
          "internalType": "address",
          "name": "customer",
          "type": "address"
        },
        {
          "internalType": "bool",
          "name": "paidOut",
          "type": "bool"
        },
        {
          "internalType": "enum ATC.SlotStatus",
          "name": "slotStatus",
          "type": "uint8"
        },
        {
          "internalType": "string",
          "name": "slotID",
          "type": "string"
        },
        {
          "internalType": "string",
          "name": "title",
          "type": "string"
        },
        {
          "internalType": "uint256",
          "name": "price",
          "type": "uint256"
        }
      ],
      "stateMutability": "view",
      "type": "function",
      "constant": true
    },
    {
      "inputs": [
        {
          "internalType": "address",
          "name": "_newUser",
          "type": "address"
        },
        {
          "internalType": "string",
          "name": "_username",
          "type": "string"
        }
      ],
      "name": "addUser",
      "outputs": [],
      "stateMutability": "nonpayable",
      "type": "function"
    },
    {
      "inputs": [
        {
          "internalType": "string",
          "name": "_username",
          "type": "string"
        }
      ],
      "name": "register",
      "outputs": [],
      "stateMutability": "nonpayable",
      "type": "function"
    },
    {
      "inputs": [
        {
          "internalType": "string",
          "name": "_title",
          "type": "string"
        },
        {
          "internalType": "uint256",
          "name": "_price",
          "type": "uint256"
        }
      ],
      "name": "addDrop",
      "outputs": [],
      "stateMutability": "nonpayable",
      "type": "function"
    },
    {
      "inputs": [
        {
          "internalType": "address",
          "name": "_procurerAddress",
          "type": "address"
        },
        {
          "internalType": "uint256",
          "name": "_dropIndex",
          "type": "uint256"
        },
        {
          "internalType": "string",
          "name": "_slotID",
          "type": "string"
        },
        {
          "internalType": "string",
          "name": "_title",
          "type": "string"
        }
      ],
      "name": "buySlot",
      "outputs": [],
      "stateMutability": "payable",
      "type": "function",
      "payable": true
    },
    {
      "inputs": [],
      "name": "getDrops",
      "outputs": [
        {
          "components": [
            {
              "internalType": "string",
              "name": "title",
              "type": "string"
            },
            {
              "internalType": "uint256",
              "name": "price",
              "type": "uint256"
            },
            {
              "internalType": "enum ATC.DropStatus",
              "name": "dropStatus",
              "type": "uint8"
            }
          ],
          "internalType": "struct ATC.Drop[]",
          "name": "",
          "type": "tuple[]"
        }
      ],
      "stateMutability": "view",
      "type": "function",
      "constant": true
    },
    {
      "inputs": [],
      "name": "getSlots",
      "outputs": [
        {
          "components": [
            {
              "internalType": "address",
              "name": "customer",
              "type": "address"
            },
            {
              "internalType": "bool",
              "name": "paidOut",
              "type": "bool"
            },
            {
              "internalType": "enum ATC.SlotStatus",
              "name": "slotStatus",
              "type": "uint8"
            },
            {
              "internalType": "string",
              "name": "slotID",
              "type": "string"
            },
            {
              "internalType": "string",
              "name": "title",
              "type": "string"
            },
            {
              "internalType": "uint256",
              "name": "price",
              "type": "uint256"
            }
          ],
          "internalType": "struct ATC.Slot[]",
          "name": "",
          "type": "tuple[]"
        }
      ],
      "stateMutability": "view",
      "type": "function",
      "constant": true
    },
    {
      "inputs": [
        {
          "internalType": "uint256",
          "name": "_dropIndex",
          "type": "uint256"
        }
      ],
      "name": "getDropSlots",
      "outputs": [
        {
          "components": [
            {
              "internalType": "address",
              "name": "customer",
              "type": "address"
            },
            {
              "internalType": "bool",
              "name": "paidOut",
              "type": "bool"
            },
            {
              "internalType": "enum ATC.SlotStatus",
              "name": "slotStatus",
              "type": "uint8"
            },
            {
              "internalType": "string",
              "name": "slotID",
              "type": "string"
            },
            {
              "internalType": "string",
              "name": "title",
              "type": "string"
            },
            {
              "internalType": "uint256",
              "name": "price",
              "type": "uint256"
            }
          ],
          "internalType": "struct ATC.Slot[]",
          "name": "",
          "type": "tuple[]"
        }
      ],
      "stateMutability": "view",
      "type": "function",
      "constant": true
    },
    {
      "inputs": [
        {
          "internalType": "address",
          "name": "_procurer",
          "type": "address"
        }
      ],
      "name": "searchProcurerDrops",
      "outputs": [
        {
          "components": [
            {
              "internalType": "string",
              "name": "title",
              "type": "string"
            },
            {
              "internalType": "uint256",
              "name": "price",
              "type": "uint256"
            },
            {
              "internalType": "enum ATC.DropStatus",
              "name": "dropStatus",
              "type": "uint8"
            }
          ],
          "internalType": "struct ATC.Drop[]",
          "name": "",
          "type": "tuple[]"
        }
      ],
      "stateMutability": "view",
      "type": "function",
      "constant": true
    }
  ],
  "bytecode": "0x60806040523480156200001157600080fd5b50604051620024e9380380620024e98339818101604052810190620000379190620001ec565b6040518060400160405280828152602001600060018111156200005657fe5b8152506000803373ffffffffffffffffffffffffffffffffffffffff1673ffffffffffffffffffffffffffffffffffffffff1681526020019081526020016000206000820151816000019080519060200190620000b5929190620000ea565b5060208201518160010160006101000a81548160ff02191690836001811115620000db57fe5b021790555090505050620002c2565b828054600181600116156101000203166002900490600052602060002090601f016020900481019282601f106200012d57805160ff19168380011785556200015e565b828001600101855582156200015e579182015b828111156200015d57825182559160200191906001019062000140565b5b5090506200016d919062000171565b5090565b5b808211156200018c57600081600090555060010162000172565b5090565b600082601f830112620001a257600080fd5b8151620001b9620001b3826200025f565b62000231565b91508082526020830160208301858383011115620001d657600080fd5b620001e38382846200028c565b50505092915050565b600060208284031215620001ff57600080fd5b600082015167ffffffffffffffff8111156200021a57600080fd5b620002288482850162000190565b91505092915050565b6000604051905081810181811067ffffffffffffffff821117156200025557600080fd5b8060405250919050565b600067ffffffffffffffff8211156200027757600080fd5b601f19601f8301169050602081019050919050565b60005b83811015620002ac5780820151818401526020810190506200028f565b83811115620002bc576000848401525b50505050565b61221780620002d26000396000f3fe6080604052600436106100a75760003560e01c8063c206dc6c11610064578063c206dc6c14610200578063c89109131461021c578063e52394da1461025a578063f2c298be14610283578063fab2c469146102ac578063fe1d9974146102d7576100a7565b806339a5c51d146100ac5780634b68d431146100eb5780635c855a5b146101145780637b9c5d18146101565780638691afb5146101935780639a43c477146101be575b600080fd5b3480156100b857600080fd5b506100d360048036038101906100ce91906118c4565b610314565b6040516100e293929190611f0c565b60405180910390f35b3480156100f757600080fd5b50610112600480360381019061010d9190611870565b6103fd565b005b34801561012057600080fd5b5061013b60048036038101906101369190611993565b61054f565b60405161014d96959493929190611e29565b60405180910390f35b34801561016257600080fd5b5061017d60048036038101906101789190611847565b61071c565b60405161018a9190611e98565b60405180910390f35b34801561019f57600080fd5b506101a8610893565b6040516101b59190611e98565b60405180910390f35b3480156101ca57600080fd5b506101e560048036038101906101e091906118c4565b610a08565b6040516101f796959493929190611e29565b60405180910390f35b61021a60048036038101906102159190611900565b610bc8565b005b34801561022857600080fd5b50610243600480360381019061023e9190611847565b610f58565b604051610251929190611edc565b60405180910390f35b34801561026657600080fd5b50610281600480360381019061027c9190611a23565b611021565b005b34801561028f57600080fd5b506102aa60048036038101906102a591906119e2565b611106565b005b3480156102b857600080fd5b506102c16111b0565b6040516102ce9190611eba565b60405180910390f35b3480156102e357600080fd5b506102fe60048036038101906102f99190611a77565b611438565b60405161030b9190611eba565b60405180910390f35b6001602052816000526040600020818154811061032d57fe5b906000526020600020906003020160009150915050806000018054600181600116156101000203166002900480601f0160208091040260200160405190810160405280929190818152602001828054600181600116156101000203166002900480156103da5780601f106103af576101008083540402835291602001916103da565b820191906000526020600020905b8154815290600101906020018083116103bd57829003601f168201915b5050505050908060010154908060020160009054906101000a900460ff16905083565b6000600181111561040a57fe5b6000803373ffffffffffffffffffffffffffffffffffffffff1673ffffffffffffffffffffffffffffffffffffffff16815260200190815260200160002060010160009054906101000a900460ff16600181111561046457fe5b146104a4576040517f08c379a000000000000000000000000000000000000000000000000000000000815260040161049b90611f6a565b60405180910390fd5b60405180604001604052808281526020016001808111156104c157fe5b8152506000808473ffffffffffffffffffffffffffffffffffffffff1673ffffffffffffffffffffffffffffffffffffffff168152602001908152602001600020600082015181600001908051906020019061051e9291906116d3565b5060208201518160010160006101000a81548160ff0219169083600181111561054357fe5b02179055509050505050565b6003602052826000526040600020602052816000526040600020818154811061057457fe5b906000526020600020906004020160009250925050508060000160009054906101000a900473ffffffffffffffffffffffffffffffffffffffff16908060000160149054906101000a900460ff16908060000160159054906101000a900460ff1690806001018054600181600116156101000203166002900480601f01602080910402602001604051908101604052809291908181526020018280546001816001161561010002031660029004801561066e5780601f106106435761010080835404028352916020019161066e565b820191906000526020600020905b81548152906001019060200180831161065157829003601f168201915b505050505090806002018054600181600116156101000203166002900480601f01602080910402602001604051908101604052809291908181526020018280546001816001161561010002031660029004801561070c5780601f106106e15761010080835404028352916020019161070c565b820191906000526020600020905b8154815290600101906020018083116106ef57829003601f168201915b5050505050908060030154905086565b6060600160008373ffffffffffffffffffffffffffffffffffffffff1673ffffffffffffffffffffffffffffffffffffffff168152602001908152602001600020805480602002602001604051908101604052809291908181526020016000905b828210156108885783829060005260206000209060030201604051806060016040529081600082018054600181600116156101000203166002900480601f0160208091040260200160405190810160405280929190818152602001828054600181600116156101000203166002900480156108395780601f1061080e57610100808354040283529160200191610839565b820191906000526020600020905b81548152906001019060200180831161081c57829003601f168201915b50505050508152602001600182015481526020016002820160009054906101000a900460ff16600181111561086a57fe5b600181111561087557fe5b815250508152602001906001019061077d565b505050509050919050565b6060600160003373ffffffffffffffffffffffffffffffffffffffff1673ffffffffffffffffffffffffffffffffffffffff168152602001908152602001600020805480602002602001604051908101604052809291908181526020016000905b828210156109ff5783829060005260206000209060030201604051806060016040529081600082018054600181600116156101000203166002900480601f0160208091040260200160405190810160405280929190818152602001828054600181600116156101000203166002900480156109b05780601f10610985576101008083540402835291602001916109b0565b820191906000526020600020905b81548152906001019060200180831161099357829003601f168201915b50505050508152602001600182015481526020016002820160009054906101000a900460ff1660018111156109e157fe5b60018111156109ec57fe5b81525050815260200190600101906108f4565b50505050905090565b60026020528160005260406000208181548110610a2157fe5b9060005260206000209060040201600091509150508060000160009054906101000a900473ffffffffffffffffffffffffffffffffffffffff16908060000160149054906101000a900460ff16908060000160159054906101000a900460ff1690806001018054600181600116156101000203166002900480601f016020809104026020016040519081016040528092919081815260200182805460018160011615610100020316600290048015610b1a5780601f10610aef57610100808354040283529160200191610b1a565b820191906000526020600020905b815481529060010190602001808311610afd57829003601f168201915b505050505090806002018054600181600116156101000203166002900480601f016020809104026020016040519081016040528092919081815260200182805460018160011615610100020316600290048015610bb85780601f10610b8d57610100808354040283529160200191610bb8565b820191906000526020600020905b815481529060010190602001808311610b9b57829003601f168201915b5050505050908060030154905086565b600160008573ffffffffffffffffffffffffffffffffffffffff1673ffffffffffffffffffffffffffffffffffffffff1681526020019081526020016000208381548110610c1257fe5b906000526020600020906003020160010154341015610c66576040517f08c379a0000000000000000000000000000000000000000000000000000000008152600401610c5d90611f4a565b60405180910390fd5b610c6e611753565b6040518060c001604052803373ffffffffffffffffffffffffffffffffffffffff16815260200160001515815260200160006002811115610cab57fe5b8152602001848152602001838152602001348152509050600360008673ffffffffffffffffffffffffffffffffffffffff1673ffffffffffffffffffffffffffffffffffffffff168152602001908152602001600020600085815260200190815260200160002081908060018154018082558091505060019003906000526020600020906004020160009091909190915060008201518160000160006101000a81548173ffffffffffffffffffffffffffffffffffffffff021916908373ffffffffffffffffffffffffffffffffffffffff16021790555060208201518160000160146101000a81548160ff02191690831515021790555060408201518160000160156101000a81548160ff02191690836002811115610dc757fe5b02179055506060820151816001019080519060200190610de89291906116d3565b506080820151816002019080519060200190610e059291906116d3565b5060a082015181600301555050600260003373ffffffffffffffffffffffffffffffffffffffff1673ffffffffffffffffffffffffffffffffffffffff16815260200190815260200160002081908060018154018082558091505060019003906000526020600020906004020160009091909190915060008201518160000160006101000a81548173ffffffffffffffffffffffffffffffffffffffff021916908373ffffffffffffffffffffffffffffffffffffffff16021790555060208201518160000160146101000a81548160ff02191690831515021790555060408201518160000160156101000a81548160ff02191690836002811115610f0657fe5b02179055506060820151816001019080519060200190610f279291906116d3565b506080820151816002019080519060200190610f449291906116d3565b5060a0820151816003015550505050505050565b6000602052806000526040600020600091509050806000018054600181600116156101000203166002900480601f0160208091040260200160405190810160405280929190818152602001828054600181600116156101000203166002900480156110045780601f10610fd957610100808354040283529160200191611004565b820191906000526020600020905b815481529060010190602001808311610fe757829003601f168201915b5050505050908060010160009054906101000a900460ff16905082565b600160003373ffffffffffffffffffffffffffffffffffffffff1673ffffffffffffffffffffffffffffffffffffffff16815260200190815260200160002060405180606001604052808481526020018381526020016000600181111561108457fe5b815250908060018154018082558091505060019003906000526020600020906003020160009091909190915060008201518160000190805190602001906110cc9291906116d3565b506020820151816001015560408201518160020160006101000a81548160ff021916908360018111156110fb57fe5b021790555050505050565b604051806040016040528082815260200160018081111561112357fe5b8152506000803373ffffffffffffffffffffffffffffffffffffffff1673ffffffffffffffffffffffffffffffffffffffff16815260200190815260200160002060008201518160000190805190602001906111809291906116d3565b5060208201518160010160006101000a81548160ff021916908360018111156111a557fe5b021790555090505050565b6060600260003373ffffffffffffffffffffffffffffffffffffffff1673ffffffffffffffffffffffffffffffffffffffff168152602001908152602001600020805480602002602001604051908101604052809291908181526020016000905b8282101561142f57838290600052602060002090600402016040518060c00160405290816000820160009054906101000a900473ffffffffffffffffffffffffffffffffffffffff1673ffffffffffffffffffffffffffffffffffffffff1673ffffffffffffffffffffffffffffffffffffffff1681526020016000820160149054906101000a900460ff161515151581526020016000820160159054906101000a900460ff1660028111156112c357fe5b60028111156112ce57fe5b8152602001600182018054600181600116156101000203166002900480601f01602080910402602001604051908101604052809291908181526020018280546001816001161561010002031660029004801561136b5780601f106113405761010080835404028352916020019161136b565b820191906000526020600020905b81548152906001019060200180831161134e57829003601f168201915b50505050508152602001600282018054600181600116156101000203166002900480601f01602080910402602001604051908101604052809291908181526020018280546001816001161561010002031660029004801561140d5780601f106113e25761010080835404028352916020019161140d565b820191906000526020600020905b8154815290600101906020018083116113f057829003601f168201915b5050505050815260200160038201548152505081526020019060010190611211565b50505050905090565b6060600360003373ffffffffffffffffffffffffffffffffffffffff1673ffffffffffffffffffffffffffffffffffffffff1681526020019081526020016000206000838152602001908152602001600020805480602002602001604051908101604052809291908181526020016000905b828210156116c857838290600052602060002090600402016040518060c00160405290816000820160009054906101000a900473ffffffffffffffffffffffffffffffffffffffff1673ffffffffffffffffffffffffffffffffffffffff1673ffffffffffffffffffffffffffffffffffffffff1681526020016000820160149054906101000a900460ff161515151581526020016000820160159054906101000a900460ff16600281111561155c57fe5b600281111561156757fe5b8152602001600182018054600181600116156101000203166002900480601f0160208091040260200160405190810160405280929190818152602001828054600181600116156101000203166002900480156116045780601f106115d957610100808354040283529160200191611604565b820191906000526020600020905b8154815290600101906020018083116115e757829003601f168201915b50505050508152602001600282018054600181600116156101000203166002900480601f0160208091040260200160405190810160405280929190818152602001828054600181600116156101000203166002900480156116a65780601f1061167b576101008083540402835291602001916116a6565b820191906000526020600020905b81548152906001019060200180831161168957829003601f168201915b50505050508152602001600382015481525050815260200190600101906114aa565b505050509050919050565b828054600181600116156101000203166002900490600052602060002090601f016020900481019282601f1061171457805160ff1916838001178555611742565b82800160010185558215611742579182015b82811115611741578251825591602001919060010190611726565b5b50905061174f91906117ac565b5090565b6040518060c00160405280600073ffffffffffffffffffffffffffffffffffffffff1681526020016000151581526020016000600281111561179157fe5b81526020016060815260200160608152602001600081525090565b5b808211156117c55760008160009055506001016117ad565b5090565b6000813590506117d8816121b3565b92915050565b600082601f8301126117ef57600080fd5b81356118026117fd82611fb7565b611f8a565b9150808252602083016020830185838301111561181e57600080fd5b611829838284612139565b50505092915050565b600081359050611841816121ca565b92915050565b60006020828403121561185957600080fd5b6000611867848285016117c9565b91505092915050565b6000806040838503121561188357600080fd5b6000611891858286016117c9565b925050602083013567ffffffffffffffff8111156118ae57600080fd5b6118ba858286016117de565b9150509250929050565b600080604083850312156118d757600080fd5b60006118e5858286016117c9565b92505060206118f685828601611832565b9150509250929050565b6000806000806080858703121561191657600080fd5b6000611924878288016117c9565b945050602061193587828801611832565b935050604085013567ffffffffffffffff81111561195257600080fd5b61195e878288016117de565b925050606085013567ffffffffffffffff81111561197b57600080fd5b611987878288016117de565b91505092959194509250565b6000806000606084860312156119a857600080fd5b60006119b6868287016117c9565b93505060206119c786828701611832565b92505060406119d886828701611832565b9150509250925092565b6000602082840312156119f457600080fd5b600082013567ffffffffffffffff811115611a0e57600080fd5b611a1a848285016117de565b91505092915050565b60008060408385031215611a3657600080fd5b600083013567ffffffffffffffff811115611a5057600080fd5b611a5c858286016117de565b9250506020611a6d85828601611832565b9150509250929050565b600060208284031215611a8957600080fd5b6000611a9784828501611832565b91505092915050565b6000611aac8383611d2b565b905092915050565b6000611ac08383611d7b565b905092915050565b611ad181612082565b82525050565b611ae081612082565b82525050565b6000611af182612003565b611afb818561203e565b935083602082028501611b0d85611fe3565b8060005b85811015611b495784840389528151611b2a8582611aa0565b9450611b3583612024565b925060208a01995050600181019050611b11565b50829750879550505050505092915050565b6000611b668261200e565b611b70818561204f565b935083602082028501611b8285611ff3565b8060005b85811015611bbe5784840389528151611b9f8582611ab4565b9450611baa83612031565b925060208a01995050600181019050611b86565b50829750879550505050505092915050565b611bd981612094565b82525050565b611be881612094565b82525050565b611bf781612103565b82525050565b611c0681612103565b82525050565b611c1581612115565b82525050565b611c2481612127565b82525050565b611c3381612127565b82525050565b6000611c4482612019565b611c4e8185612060565b9350611c5e818560208601612148565b611c678161217b565b840191505092915050565b6000611c7d82612019565b611c878185612071565b9350611c97818560208601612148565b611ca08161217b565b840191505092915050565b6000611cb8601a83612071565b91507f506c6561736520706179207468652065786163742070726963650000000000006000830152602082019050919050565b6000611cf8600c83612071565b91507f41646d696e73206f6e6c792100000000000000000000000000000000000000006000830152602082019050919050565b60006060830160008301518482036000860152611d488282611c39565b9150506020830151611d5d6020860182611e0b565b506040830151611d706040860182611bee565b508091505092915050565b600060c083016000830151611d936000860182611ac8565b506020830151611da66020860182611bd0565b506040830151611db96040860182611c1b565b5060608301518482036060860152611dd18282611c39565b91505060808301518482036080860152611deb8282611c39565b91505060a0830151611e0060a0860182611e0b565b508091505092915050565b611e14816120f9565b82525050565b611e23816120f9565b82525050565b600060c082019050611e3e6000830189611ad7565b611e4b6020830188611bdf565b611e586040830187611c2a565b8181036060830152611e6a8186611c72565b90508181036080830152611e7e8185611c72565b9050611e8d60a0830184611e1a565b979650505050505050565b60006020820190508181036000830152611eb28184611ae6565b905092915050565b60006020820190508181036000830152611ed48184611b5b565b905092915050565b60006040820190508181036000830152611ef68185611c72565b9050611f056020830184611c0c565b9392505050565b60006060820190508181036000830152611f268186611c72565b9050611f356020830185611e1a565b611f426040830184611bfd565b949350505050565b60006020820190508181036000830152611f6381611cab565b9050919050565b60006020820190508181036000830152611f8381611ceb565b9050919050565b6000604051905081810181811067ffffffffffffffff82111715611fad57600080fd5b8060405250919050565b600067ffffffffffffffff821115611fce57600080fd5b601f19601f8301169050602081019050919050565b6000819050602082019050919050565b6000819050602082019050919050565b600081519050919050565b600081519050919050565b600081519050919050565b6000602082019050919050565b6000602082019050919050565b600082825260208201905092915050565b600082825260208201905092915050565b600082825260208201905092915050565b600082825260208201905092915050565b600061208d826120d9565b9050919050565b60008115159050919050565b60008190506120ae8261218c565b919050565b60008190506120c182612199565b919050565b60008190506120d4826121a6565b919050565b600073ffffffffffffffffffffffffffffffffffffffff82169050919050565b6000819050919050565b600061210e826120a0565b9050919050565b6000612120826120b3565b9050919050565b6000612132826120c6565b9050919050565b82818337600083830152505050565b60005b8381101561216657808201518184015260208101905061214b565b83811115612175576000848401525b50505050565b6000601f19601f8301169050919050565b6002811061219657fe5b50565b600281106121a357fe5b50565b600381106121b057fe5b50565b6121bc81612082565b81146121c757600080fd5b50565b6121d3816120f9565b81146121de57600080fd5b5056fea2646970667358221220aafce2e89274d2e64305a4a341ec47d6aceef3e2b95a48b9e197b8f725c46b9564736f6c63430007000033",
  "immutableReferences": {},
  "source": "pragma solidity ^0.7.0;\npragma experimental ABIEncoderV2;\n\ncontract ATC {\n    mapping(address => User) public userData;\n    mapping(address => Drop[]) public userDrops;\n    mapping(address => Slot[]) public userSlots;\n    mapping(address => mapping(uint256 => Slot[])) public dropSlots;\n    enum Role {ADMIN, USER}\n    Role currentRole;\n\n    enum DropStatus {OPEN, CLOSED}\n    DropStatus dropStatus;\n\n    enum SlotStatus {PENDING, SUCCESS, FAILED}\n    SlotStatus slotStatus;\n\n    struct User {\n        string username;\n        Role role;\n    }\n\n    struct Drop {\n        string title;\n        uint256 price;\n        DropStatus dropStatus;\n    }\n\n    struct Slot {\n        address customer;\n        bool paidOut;\n        SlotStatus slotStatus;\n        string slotID;\n        string title;\n        uint256 price;\n    }\n\n    modifier adminOnly() {\n        require(userData[msg.sender].role == Role.ADMIN, \"Admins only!\");\n        _;\n    }\n\n    constructor(string memory _username) public {\n        userData[msg.sender] = User(_username, Role.ADMIN);\n    }\n\n    function addUser(address _newUser, string memory _username)\n        public\n        adminOnly\n    {\n        userData[_newUser] = User(_username, Role.USER);\n    }\n\n    function register(string memory _username) public {\n        userData[msg.sender] = User(_username, Role.USER);\n    }\n\n    function addDrop(string memory _title, uint256 _price) public {\n        // userData[_newUser] = User(_username, Role.USER);\n        userDrops[msg.sender].push(Drop(_title, _price, DropStatus.OPEN));\n    }\n\n    function buySlot(\n        address _procurerAddress,\n        uint256 _dropIndex,\n        string memory _slotID,\n        string memory _title\n    ) public payable {\n        require(\n            msg.value >= userDrops[_procurerAddress][_dropIndex].price,\n            \"Please pay the exact price\"\n        );\n        Slot memory newSlot = Slot(\n            msg.sender,\n            false,\n            SlotStatus.PENDING,\n            _slotID,\n            _title,\n            msg.value\n        );\n        dropSlots[_procurerAddress][_dropIndex].push(newSlot);\n        userSlots[msg.sender].push(newSlot);\n    }\n\n    function getDrops() public view returns (Drop[] memory) {\n        return userDrops[msg.sender];\n    }\n\n    function getSlots() public view returns (Slot[] memory) {\n        return userSlots[msg.sender];\n    }\n\n    function getDropSlots(uint256 _dropIndex)\n        public\n        view\n        returns (Slot[] memory)\n    {\n        return dropSlots[msg.sender][_dropIndex];\n    }\n\n    function searchProcurerDrops(address _procurer)\n        public\n        view\n        returns (Drop[] memory)\n    {\n        return userDrops[_procurer];\n    }\n}\n",
  "sourcePath": "/Users/camro/Dev/SmrtContracts/atc/contracts/ATC.sol",
  "compiler": {
    "name": "solc",
    "version": "0.7.0+commit.9e61f92b.Emscripten.clang"
  },
  "schemaVersion": "3.3.4",
  "updatedAt": "2021-03-23T02:04:18.475Z",
  "networkType": "ethereum",
  "devdoc": {
    "kind": "dev",
    "methods": {},
    "version": 1
  },
  "userdoc": {
    "kind": "user",
    "methods": {},
    "version": 1
  }
}