{
  "contractName": "ATC",
  "abi": [
    {
      "inputs": [
        {
          "internalType": "string",
          "name": "_username",
          "type": "string"
        }
      ],
      "stateMutability": "nonpayable",
      "type": "constructor"
    },
    {
      "inputs": [
        {
          "internalType": "address",
          "name": "",
          "type": "address"
        },
        {
          "internalType": "uint256",
          "name": "",
          "type": "uint256"
        },
        {
          "internalType": "uint256",
          "name": "",
          "type": "uint256"
        }
      ],
      "name": "dropSlots",
      "outputs": [
        {
          "internalType": "address",
          "name": "customer",
          "type": "address"
        },
        {
          "internalType": "bool",
          "name": "paidOut",
          "type": "bool"
        },
        {
          "internalType": "enum ATC.SlotStatus",
          "name": "slotStatus",
          "type": "uint8"
        }
      ],
      "stateMutability": "view",
      "type": "function",
      "constant": true
    },
    {
      "inputs": [
        {
          "internalType": "address",
          "name": "",
          "type": "address"
        }
      ],
      "name": "userData",
      "outputs": [
        {
          "internalType": "string",
          "name": "username",
          "type": "string"
        },
        {
          "internalType": "enum ATC.Role",
          "name": "role",
          "type": "uint8"
        }
      ],
      "stateMutability": "view",
      "type": "function",
      "constant": true
    },
    {
      "inputs": [
        {
          "internalType": "address",
          "name": "",
          "type": "address"
        },
        {
          "internalType": "uint256",
          "name": "",
          "type": "uint256"
        }
      ],
      "name": "userDrops",
      "outputs": [
        {
          "internalType": "string",
          "name": "title",
          "type": "string"
        },
        {
          "internalType": "uint256",
          "name": "price",
          "type": "uint256"
        },
        {
          "internalType": "enum ATC.DropStatus",
          "name": "dropStatus",
          "type": "uint8"
        }
      ],
      "stateMutability": "view",
      "type": "function",
      "constant": true
    },
    {
      "inputs": [
        {
          "internalType": "address",
          "name": "_newUser",
          "type": "address"
        },
        {
          "internalType": "string",
          "name": "_username",
          "type": "string"
        }
      ],
      "name": "addUser",
      "outputs": [],
      "stateMutability": "nonpayable",
      "type": "function"
    },
    {
      "inputs": [
        {
          "internalType": "string",
          "name": "_username",
          "type": "string"
        }
      ],
      "name": "register",
      "outputs": [],
      "stateMutability": "payable",
      "type": "function",
      "payable": true
    },
    {
      "inputs": [
        {
          "internalType": "string",
          "name": "_title",
          "type": "string"
        },
        {
          "internalType": "uint256",
          "name": "_price",
          "type": "uint256"
        }
      ],
      "name": "addDrop",
      "outputs": [],
      "stateMutability": "nonpayable",
      "type": "function"
    },
    {
      "inputs": [
        {
          "internalType": "address",
          "name": "_procurerAddress",
          "type": "address"
        },
        {
          "internalType": "uint256",
          "name": "_dropIndex",
          "type": "uint256"
        }
      ],
      "name": "buySlot",
      "outputs": [],
      "stateMutability": "payable",
      "type": "function",
      "payable": true
    },
    {
      "inputs": [],
      "name": "getDrops",
      "outputs": [
        {
          "components": [
            {
              "internalType": "string",
              "name": "title",
              "type": "string"
            },
            {
              "internalType": "uint256",
              "name": "price",
              "type": "uint256"
            },
            {
              "internalType": "enum ATC.DropStatus",
              "name": "dropStatus",
              "type": "uint8"
            }
          ],
          "internalType": "struct ATC.Drop[]",
          "name": "",
          "type": "tuple[]"
        }
      ],
      "stateMutability": "view",
      "type": "function",
      "constant": true
    }
  ],
  "bytecode": "0x60806040523480156200001157600080fd5b5060405162001591380380620015918339818101604052810190620000379190620001ec565b6040518060400160405280828152602001600060018111156200005657fe5b8152506000803373ffffffffffffffffffffffffffffffffffffffff1673ffffffffffffffffffffffffffffffffffffffff1681526020019081526020016000206000820151816000019080519060200190620000b5929190620000ea565b5060208201518160010160006101000a81548160ff02191690836001811115620000db57fe5b021790555090505050620002c2565b828054600181600116156101000203166002900490600052602060002090601f016020900481019282601f106200012d57805160ff19168380011785556200015e565b828001600101855582156200015e579182015b828111156200015d57825182559160200191906001019062000140565b5b5090506200016d919062000171565b5090565b5b808211156200018c57600081600090555060010162000172565b5090565b600082601f830112620001a257600080fd5b8151620001b9620001b3826200025f565b62000231565b91508082526020830160208301858383011115620001d657600080fd5b620001e38382846200028c565b50505092915050565b600060208284031215620001ff57600080fd5b600082015167ffffffffffffffff8111156200021a57600080fd5b620002288482850162000190565b91505092915050565b6000604051905081810181811067ffffffffffffffff821117156200025557600080fd5b8060405250919050565b600067ffffffffffffffff8211156200027757600080fd5b601f19601f8301169050602081019050919050565b60005b83811015620002ac5780820151818401526020810190506200028f565b83811115620002bc576000848401525b50505050565b6112bf80620002d26000396000f3fe60806040526004361061007b5760003560e01c80638691afb51161004e5780638691afb514610143578063c89109131461016e578063e52394da146101ac578063f2c298be146101d55761007b565b806307941d981461008057806339a5c51d1461009c5780634b68d431146100db5780635c855a5b14610104575b600080fd5b61009a60048036038101906100959190610c01565b6101f1565b005b3480156100a857600080fd5b506100c360048036038101906100be9190610c01565b6103da565b6040516100d293929190610fed565b60405180910390f35b3480156100e757600080fd5b5061010260048036038101906100fd9190610bad565b6104c3565b005b34801561011057600080fd5b5061012b60048036038101906101269190610c3d565b610615565b60405161013a93929190610f64565b60405180910390f35b34801561014f57600080fd5b5061015861069c565b6040516101659190610f9b565b60405180910390f35b34801561017a57600080fd5b5061019560048036038101906101909190610b84565b610811565b6040516101a3929190610fbd565b60405180910390f35b3480156101b857600080fd5b506101d360048036038101906101ce9190610ccd565b6108da565b005b6101ef60048036038101906101ea9190610c8c565b6109bf565b005b600160008373ffffffffffffffffffffffffffffffffffffffff1673ffffffffffffffffffffffffffffffffffffffff168152602001908152602001600020818154811061023b57fe5b90600052602060002090600302016001015434101561028f576040517f08c379a00000000000000000000000000000000000000000000000000000000081526004016102869061102b565b60405180910390fd5b600260008373ffffffffffffffffffffffffffffffffffffffff1673ffffffffffffffffffffffffffffffffffffffff168152602001908152602001600020600082815260200190815260200160002060405180606001604052803373ffffffffffffffffffffffffffffffffffffffff1681526020016000151581526020016000600281111561031c57fe5b8152509080600181540180825580915050600190039060005260206000200160009091909190915060008201518160000160006101000a81548173ffffffffffffffffffffffffffffffffffffffff021916908373ffffffffffffffffffffffffffffffffffffffff16021790555060208201518160000160146101000a81548160ff02191690831515021790555060408201518160000160156101000a81548160ff021916908360028111156103cf57fe5b021790555050505050565b600160205281600052604060002081815481106103f357fe5b906000526020600020906003020160009150915050806000018054600181600116156101000203166002900480601f0160208091040260200160405190810160405280929190818152602001828054600181600116156101000203166002900480156104a05780601f10610475576101008083540402835291602001916104a0565b820191906000526020600020905b81548152906001019060200180831161048357829003601f168201915b5050505050908060010154908060020160009054906101000a900460ff16905083565b600060018111156104d057fe5b6000803373ffffffffffffffffffffffffffffffffffffffff1673ffffffffffffffffffffffffffffffffffffffff16815260200190815260200160002060010160009054906101000a900460ff16600181111561052a57fe5b1461056a576040517f08c379a00000000000000000000000000000000000000000000000000000000081526004016105619061104b565b60405180910390fd5b604051806040016040528082815260200160018081111561058757fe5b8152506000808473ffffffffffffffffffffffffffffffffffffffff1673ffffffffffffffffffffffffffffffffffffffff16815260200190815260200160002060008201518160000190805190602001906105e4929190610a69565b5060208201518160010160006101000a81548160ff0219169083600181111561060957fe5b02179055509050505050565b6002602052826000526040600020602052816000526040600020818154811061063a57fe5b9060005260206000200160009250925050508060000160009054906101000a900473ffffffffffffffffffffffffffffffffffffffff16908060000160149054906101000a900460ff16908060000160159054906101000a900460ff16905083565b6060600160003373ffffffffffffffffffffffffffffffffffffffff1673ffffffffffffffffffffffffffffffffffffffff168152602001908152602001600020805480602002602001604051908101604052809291908181526020016000905b828210156108085783829060005260206000209060030201604051806060016040529081600082018054600181600116156101000203166002900480601f0160208091040260200160405190810160405280929190818152602001828054600181600116156101000203166002900480156107b95780601f1061078e576101008083540402835291602001916107b9565b820191906000526020600020905b81548152906001019060200180831161079c57829003601f168201915b50505050508152602001600182015481526020016002820160009054906101000a900460ff1660018111156107ea57fe5b60018111156107f557fe5b81525050815260200190600101906106fd565b50505050905090565b6000602052806000526040600020600091509050806000018054600181600116156101000203166002900480601f0160208091040260200160405190810160405280929190818152602001828054600181600116156101000203166002900480156108bd5780601f10610892576101008083540402835291602001916108bd565b820191906000526020600020905b8154815290600101906020018083116108a057829003601f168201915b5050505050908060010160009054906101000a900460ff16905082565b600160003373ffffffffffffffffffffffffffffffffffffffff1673ffffffffffffffffffffffffffffffffffffffff16815260200190815260200160002060405180606001604052808481526020018381526020016000600181111561093d57fe5b81525090806001815401808255809150506001900390600052602060002090600302016000909190919091506000820151816000019080519060200190610985929190610a69565b506020820151816001015560408201518160020160006101000a81548160ff021916908360018111156109b457fe5b021790555050505050565b60405180604001604052808281526020016001808111156109dc57fe5b8152506000803373ffffffffffffffffffffffffffffffffffffffff1673ffffffffffffffffffffffffffffffffffffffff1681526020019081526020016000206000820151816000019080519060200190610a39929190610a69565b5060208201518160010160006101000a81548160ff02191690836001811115610a5e57fe5b021790555090505050565b828054600181600116156101000203166002900490600052602060002090601f016020900481019282601f10610aaa57805160ff1916838001178555610ad8565b82800160010185558215610ad8579182015b82811115610ad7578251825591602001919060010190610abc565b5b509050610ae59190610ae9565b5090565b5b80821115610b02576000816000905550600101610aea565b5090565b600081359050610b158161125b565b92915050565b600082601f830112610b2c57600080fd5b8135610b3f610b3a82611098565b61106b565b91508082526020830160208301858383011115610b5b57600080fd5b610b668382846111e1565b50505092915050565b600081359050610b7e81611272565b92915050565b600060208284031215610b9657600080fd5b6000610ba484828501610b06565b91505092915050565b60008060408385031215610bc057600080fd5b6000610bce85828601610b06565b925050602083013567ffffffffffffffff811115610beb57600080fd5b610bf785828601610b1b565b9150509250929050565b60008060408385031215610c1457600080fd5b6000610c2285828601610b06565b9250506020610c3385828601610b6f565b9150509250929050565b600080600060608486031215610c5257600080fd5b6000610c6086828701610b06565b9350506020610c7186828701610b6f565b9250506040610c8286828701610b6f565b9150509250925092565b600060208284031215610c9e57600080fd5b600082013567ffffffffffffffff811115610cb857600080fd5b610cc484828501610b1b565b91505092915050565b60008060408385031215610ce057600080fd5b600083013567ffffffffffffffff811115610cfa57600080fd5b610d0685828601610b1b565b9250506020610d1785828601610b6f565b9150509250929050565b6000610d2d8383610ef6565b905092915050565b610d3e8161112a565b82525050565b6000610d4f826110d4565b610d5981856110f7565b935083602082028501610d6b856110c4565b8060005b85811015610da75784840389528151610d888582610d21565b9450610d93836110ea565b925060208a01995050600181019050610d6f565b50829750879550505050505092915050565b610dc28161113c565b82525050565b610dd1816111ab565b82525050565b610de0816111ab565b82525050565b610def816111bd565b82525050565b610dfe816111cf565b82525050565b6000610e0f826110df565b610e198185611108565b9350610e298185602086016111f0565b610e3281611223565b840191505092915050565b6000610e48826110df565b610e528185611119565b9350610e628185602086016111f0565b610e6b81611223565b840191505092915050565b6000610e83601a83611119565b91507f506c6561736520706179207468652065786163742070726963650000000000006000830152602082019050919050565b6000610ec3600c83611119565b91507f41646d696e73206f6e6c792100000000000000000000000000000000000000006000830152602082019050919050565b60006060830160008301518482036000860152610f138282610e04565b9150506020830151610f286020860182610f46565b506040830151610f3b6040860182610dc8565b508091505092915050565b610f4f816111a1565b82525050565b610f5e816111a1565b82525050565b6000606082019050610f796000830186610d35565b610f866020830185610db9565b610f936040830184610df5565b949350505050565b60006020820190508181036000830152610fb58184610d44565b905092915050565b60006040820190508181036000830152610fd78185610e3d565b9050610fe66020830184610de6565b9392505050565b600060608201905081810360008301526110078186610e3d565b90506110166020830185610f55565b6110236040830184610dd7565b949350505050565b6000602082019050818103600083015261104481610e76565b9050919050565b6000602082019050818103600083015261106481610eb6565b9050919050565b6000604051905081810181811067ffffffffffffffff8211171561108e57600080fd5b8060405250919050565b600067ffffffffffffffff8211156110af57600080fd5b601f19601f8301169050602081019050919050565b6000819050602082019050919050565b600081519050919050565b600081519050919050565b6000602082019050919050565b600082825260208201905092915050565b600082825260208201905092915050565b600082825260208201905092915050565b600061113582611181565b9050919050565b60008115159050919050565b600081905061115682611234565b919050565b600081905061116982611241565b919050565b600081905061117c8261124e565b919050565b600073ffffffffffffffffffffffffffffffffffffffff82169050919050565b6000819050919050565b60006111b682611148565b9050919050565b60006111c88261115b565b9050919050565b60006111da8261116e565b9050919050565b82818337600083830152505050565b60005b8381101561120e5780820151818401526020810190506111f3565b8381111561121d576000848401525b50505050565b6000601f19601f8301169050919050565b6002811061123e57fe5b50565b6002811061124b57fe5b50565b6003811061125857fe5b50565b6112648161112a565b811461126f57600080fd5b50565b61127b816111a1565b811461128657600080fd5b5056fea2646970667358221220edf9fa3bbc687567e7e452c36e53bd029a63272290172e0fe23c241db299f55864736f6c63430007000033",
  "immutableReferences": {},
  "source": "pragma solidity ^0.7.0;\npragma experimental ABIEncoderV2;\n\ncontract ATC {\n    mapping(address => User) public userData;\n    mapping(address => Drop[]) public userDrops;\n    mapping(address => mapping(uint256 => Slot[])) public dropSlots;\n    enum Role {ADMIN, USER}\n    Role currentRole;\n\n    enum DropStatus {OPEN, CLOSED}\n    DropStatus dropStatus;\n\n    enum SlotStatus {PENDING, SUCCESS, FAILED}\n    SlotStatus slotStatus;\n\n    struct User {\n        string username;\n        Role role;\n    }\n\n    struct Drop {\n        string title;\n        uint256 price;\n        DropStatus dropStatus;\n    }\n\n    struct Slot {\n        address customer;\n        bool paidOut;\n        SlotStatus slotStatus;\n    }\n\n    modifier adminOnly() {\n        require(userData[msg.sender].role == Role.ADMIN, \"Admins only!\");\n        _;\n    }\n\n    constructor(string memory _username) public {\n        userData[msg.sender] = User(_username, Role.ADMIN);\n    }\n\n    function addUser(address _newUser, string memory _username)\n        public\n        adminOnly\n    {\n        userData[_newUser] = User(_username, Role.USER);\n    }\n\n    function register(string memory _username) public payable {\n        userData[msg.sender] = User(_username, Role.USER);\n    }\n\n    function addDrop(string memory _title, uint256 _price) public {\n        // userData[_newUser] = User(_username, Role.USER);\n        userDrops[msg.sender].push(Drop(_title, _price, DropStatus.OPEN));\n    }\n\n    function buySlot(address _procurerAddress, uint256 _dropIndex)\n        public\n        payable\n    {\n        require(\n            msg.value >= userDrops[_procurerAddress][_dropIndex].price,\n            \"Please pay the exact price\"\n        );\n        dropSlots[_procurerAddress][_dropIndex].push(\n            Slot(msg.sender, false, SlotStatus.PENDING)\n        );\n    }\n\n    function getDrops() public view returns (Drop[] memory) {\n        return userDrops[msg.sender];\n    }\n}\n",
  "sourcePath": "/Users/camro/Dev/SmrtContracts/atc/contracts/ATC.sol",
  "compiler": {
    "name": "solc",
    "version": "0.7.0+commit.9e61f92b.Emscripten.clang"
  },
  "schemaVersion": "3.3.4",
  "updatedAt": "2021-03-22T20:42:19.319Z",
  "networkType": "ethereum",
  "devdoc": {
    "kind": "dev",
    "methods": {},
    "version": 1
  },
  "userdoc": {
    "kind": "user",
    "methods": {},
    "version": 1
  }
}