{
  "_format": "hh-sol-artifact-1",
  "contractName": "ATC",
  "sourceName": "contracts/ATC.sol",
  "abi": [
    {
      "inputs": [
        {
          "internalType": "address",
          "name": "airnodeAddress",
          "type": "address"
        },
        {
          "internalType": "string",
          "name": "_username",
          "type": "string"
        }
      ],
      "stateMutability": "nonpayable",
      "type": "constructor"
    },
    {
      "inputs": [
        {
          "internalType": "string",
          "name": "_title",
          "type": "string"
        },
        {
          "internalType": "uint256",
          "name": "_price",
          "type": "uint256"
        }
      ],
      "name": "addDrop",
      "outputs": [],
      "stateMutability": "nonpayable",
      "type": "function"
    },
    {
      "inputs": [],
      "name": "airnode",
      "outputs": [
        {
          "internalType": "contract IAirnode",
          "name": "",
          "type": "address"
        }
      ],
      "stateMutability": "view",
      "type": "function"
    },
    {
      "inputs": [],
      "name": "airnodeAddress",
      "outputs": [
        {
          "internalType": "address",
          "name": "_airnodeAddress",
          "type": "address"
        }
      ],
      "stateMutability": "view",
      "type": "function"
    },
    {
      "inputs": [
        {
          "internalType": "address",
          "name": "_procurerAddress",
          "type": "address"
        },
        {
          "internalType": "uint256",
          "name": "_dropIndex",
          "type": "uint256"
        },
        {
          "internalType": "string",
          "name": "_slotID",
          "type": "string"
        },
        {
          "internalType": "string",
          "name": "_title",
          "type": "string"
        }
      ],
      "name": "buySlot",
      "outputs": [],
      "stateMutability": "payable",
      "type": "function"
    },
    {
      "inputs": [
        {
          "internalType": "bytes32",
          "name": "requestId",
          "type": "bytes32"
        },
        {
          "internalType": "uint256",
          "name": "statusCode",
          "type": "uint256"
        },
        {
          "internalType": "bool",
          "name": "data",
          "type": "bool"
        }
      ],
      "name": "fulfill",
      "outputs": [],
      "stateMutability": "nonpayable",
      "type": "function"
    },
    {
      "inputs": [
        {
          "internalType": "bytes32",
          "name": "",
          "type": "bytes32"
        }
      ],
      "name": "fulfilledData",
      "outputs": [
        {
          "internalType": "bool",
          "name": "",
          "type": "bool"
        }
      ],
      "stateMutability": "view",
      "type": "function"
    },
    {
      "inputs": [],
      "name": "getDrops",
      "outputs": [
        {
          "components": [
            {
              "internalType": "string",
              "name": "title",
              "type": "string"
            },
            {
              "internalType": "uint256",
              "name": "price",
              "type": "uint256"
            },
            {
              "internalType": "enum ATC.DropStatus",
              "name": "dropStatus",
              "type": "uint8"
            },
            {
              "internalType": "string[]",
              "name": "slotIDs",
              "type": "string[]"
            }
          ],
          "internalType": "struct ATC.Drop[]",
          "name": "",
          "type": "tuple[]"
        }
      ],
      "stateMutability": "view",
      "type": "function"
    },
    {
      "inputs": [],
      "name": "getUserData",
      "outputs": [
        {
          "components": [
            {
              "internalType": "string",
              "name": "username",
              "type": "string"
            },
            {
              "internalType": "enum ATC.Role",
              "name": "role",
              "type": "uint8"
            },
            {
              "internalType": "bool",
              "name": "valid",
              "type": "bool"
            },
            {
              "internalType": "string[]",
              "name": "slotIDs",
              "type": "string[]"
            }
          ],
          "internalType": "struct ATC.User",
          "name": "",
          "type": "tuple"
        }
      ],
      "stateMutability": "view",
      "type": "function"
    },
    {
      "inputs": [],
      "name": "getUserSlotIDs",
      "outputs": [
        {
          "internalType": "string[]",
          "name": "",
          "type": "string[]"
        }
      ],
      "stateMutability": "view",
      "type": "function"
    },
    {
      "inputs": [
        {
          "internalType": "bytes32",
          "name": "",
          "type": "bytes32"
        }
      ],
      "name": "incomingFulfillments",
      "outputs": [
        {
          "internalType": "bool",
          "name": "",
          "type": "bool"
        }
      ],
      "stateMutability": "view",
      "type": "function"
    },
    {
      "inputs": [
        {
          "internalType": "bytes32",
          "name": "providerId",
          "type": "bytes32"
        },
        {
          "internalType": "bytes32",
          "name": "endpointId",
          "type": "bytes32"
        },
        {
          "internalType": "uint256",
          "name": "requesterInd",
          "type": "uint256"
        },
        {
          "internalType": "address",
          "name": "designatedWallet",
          "type": "address"
        },
        {
          "internalType": "bytes",
          "name": "parameters",
          "type": "bytes"
        },
        {
          "internalType": "string",
          "name": "slotID",
          "type": "string"
        }
      ],
      "name": "makeRequest",
      "outputs": [],
      "stateMutability": "nonpayable",
      "type": "function"
    },
    {
      "inputs": [
        {
          "internalType": "string",
          "name": "_slotID",
          "type": "string"
        }
      ],
      "name": "markFailed",
      "outputs": [],
      "stateMutability": "nonpayable",
      "type": "function"
    },
    {
      "inputs": [
        {
          "internalType": "string",
          "name": "_slotID",
          "type": "string"
        }
      ],
      "name": "markSuccessful",
      "outputs": [],
      "stateMutability": "nonpayable",
      "type": "function"
    },
    {
      "inputs": [
        {
          "internalType": "string",
          "name": "_username",
          "type": "string"
        }
      ],
      "name": "register",
      "outputs": [],
      "stateMutability": "nonpayable",
      "type": "function"
    },
    {
      "inputs": [
        {
          "internalType": "address",
          "name": "_procurer",
          "type": "address"
        }
      ],
      "name": "searchProcurerDrops",
      "outputs": [
        {
          "components": [
            {
              "internalType": "string",
              "name": "title",
              "type": "string"
            },
            {
              "internalType": "uint256",
              "name": "price",
              "type": "uint256"
            },
            {
              "internalType": "enum ATC.DropStatus",
              "name": "dropStatus",
              "type": "uint8"
            },
            {
              "internalType": "string[]",
              "name": "slotIDs",
              "type": "string[]"
            }
          ],
          "internalType": "struct ATC.Drop[]",
          "name": "",
          "type": "tuple[]"
        }
      ],
      "stateMutability": "view",
      "type": "function"
    },
    {
      "inputs": [
        {
          "internalType": "bytes32",
          "name": "",
          "type": "bytes32"
        }
      ],
      "name": "slotIDs",
      "outputs": [
        {
          "internalType": "string",
          "name": "",
          "type": "string"
        }
      ],
      "stateMutability": "view",
      "type": "function"
    },
    {
      "inputs": [
        {
          "internalType": "string",
          "name": "",
          "type": "string"
        }
      ],
      "name": "slots",
      "outputs": [
        {
          "internalType": "address",
          "name": "customer",
          "type": "address"
        },
        {
          "internalType": "address",
          "name": "procurer",
          "type": "address"
        },
        {
          "internalType": "bool",
          "name": "paidOut",
          "type": "bool"
        },
        {
          "internalType": "enum ATC.SlotStatus",
          "name": "slotStatus",
          "type": "uint8"
        },
        {
          "internalType": "string",
          "name": "slotID",
          "type": "string"
        },
        {
          "internalType": "string",
          "name": "title",
          "type": "string"
        },
        {
          "internalType": "uint256",
          "name": "price",
          "type": "uint256"
        }
      ],
      "stateMutability": "view",
      "type": "function"
    },
    {
      "inputs": [
        {
          "internalType": "address",
          "name": "",
          "type": "address"
        }
      ],
      "name": "userData",
      "outputs": [
        {
          "internalType": "string",
          "name": "username",
          "type": "string"
        },
        {
          "internalType": "enum ATC.Role",
          "name": "role",
          "type": "uint8"
        },
        {
          "internalType": "bool",
          "name": "valid",
          "type": "bool"
        }
      ],
      "stateMutability": "view",
      "type": "function"
    },
    {
      "inputs": [
        {
          "internalType": "address",
          "name": "",
          "type": "address"
        },
        {
          "internalType": "uint256",
          "name": "",
          "type": "uint256"
        }
      ],
      "name": "userDrops",
      "outputs": [
        {
          "internalType": "string",
          "name": "title",
          "type": "string"
        },
        {
          "internalType": "uint256",
          "name": "price",
          "type": "uint256"
        },
        {
          "internalType": "enum ATC.DropStatus",
          "name": "dropStatus",
          "type": "uint8"
        }
      ],
      "stateMutability": "view",
      "type": "function"
    }
  ],
  "bytecode": "0x60806040523480156200001157600080fd5b50604051620039ef380380620039ef833981810160405281019062000037919062000403565b81806000806101000a81548173ffffffffffffffffffffffffffffffffffffffff021916908373ffffffffffffffffffffffffffffffffffffffff1602179055505062000083620001d9565b604051806080016040528083815260200160006001811115620000a257fe5b8152602001600115158152602001600067ffffffffffffffff81118015620000c957600080fd5b50604051908082528060200260200182016040528015620000ff57816020015b6060815260200190600190039081620000e95790505b50815250905080600160003373ffffffffffffffffffffffffffffffffffffffff1673ffffffffffffffffffffffffffffffffffffffff1681526020019081526020016000206000820151816000019080519060200190620001639291906200020f565b5060208201518160010160006101000a81548160ff021916908360018111156200018957fe5b021790555060408201518160010160016101000a81548160ff0219169083151502179055506060820151816002019080519060200190620001cc92919062000296565b509050505050506200053c565b60405180608001604052806060815260200160006001811115620001f957fe5b8152602001600015158152602001606081525090565b828054600181600116156101000203166002900490600052602060002090601f016020900481019282601f106200025257805160ff191683800117855562000283565b8280016001018555821562000283579182015b828111156200028257825182559160200191906001019062000265565b5b509050620002929190620002fd565b5090565b828054828255906000526020600020908101928215620002ea579160200282015b82811115620002e9578251829080519060200190620002d89291906200020f565b5091602001919060010190620002b7565b5b509050620002f991906200031c565b5090565b5b8082111562000318576000816000905550600101620002fe565b5090565b5b8082111562000340576000818162000336919062000344565b506001016200031d565b5090565b50805460018160011615610100020316600290046000825580601f106200036c57506200038d565b601f0160209004906000526020600020908101906200038c9190620002fd565b5b50565b600081519050620003a18162000522565b92915050565b600082601f830112620003b957600080fd5b8151620003d0620003ca826200048b565b6200045d565b91508082526020830160208301858383011115620003ed57600080fd5b620003fa838284620004ec565b50505092915050565b600080604083850312156200041757600080fd5b6000620004278582860162000390565b925050602083015167ffffffffffffffff8111156200044557600080fd5b6200045385828601620003a7565b9150509250929050565b6000604051905081810181811067ffffffffffffffff821117156200048157600080fd5b8060405250919050565b600067ffffffffffffffff821115620004a357600080fd5b601f19601f8301169050602081019050919050565b6000620004c582620004cc565b9050919050565b600073ffffffffffffffffffffffffffffffffffffffff82169050919050565b60005b838110156200050c578082015181840152602081019050620004ef565b838111156200051c576000848401525b50505050565b6200052d81620004b8565b81146200053957600080fd5b50565b6134a3806200054c6000396000f3fe6080604052600436106101145760003560e01c80639d4d7e67116100a0578063d0bdd66c11610064578063d0bdd66c146103d4578063dd2ae83f146103ff578063e1d3aebf1461043c578063e52394da14610465578063f2c298be1461048e57610114565b80639d4d7e67146102e8578063a36ff4d814610325578063c206dc6c14610350578063c29a214a1461036c578063c89109131461039557610114565b806350904036116100e757806350904036146101e9578063548470d5146102145780635d37bfa91461023d5780637b9c5d18146102805780638691afb5146102bd57610114565b806322e8c87d1461011957806339a5c51d14610144578063406c6d6c146101835780634954ce30146101c0575b600080fd5b34801561012557600080fd5b5061012e6104b7565b60405161013b919061313f565b60405180910390f35b34801561015057600080fd5b5061016b6004803603810190610166919061260a565b610770565b60405161017a93929190613041565b60405180910390f35b34801561018f57600080fd5b506101aa60048036038101906101a591906126d9565b610859565b6040516101b79190612f33565b60405180910390f35b3480156101cc57600080fd5b506101e760048036038101906101e2919061272b565b610879565b005b3480156101f557600080fd5b506101fe610998565b60405161020b9190612eef565b60405180910390f35b34801561022057600080fd5b5061023b6004803603810190610236919061283d565b610b50565b005b34801561024957600080fd5b50610264600480360381019061025f919061283d565b610cad565b6040516102779796959493929190612e72565b60405180910390f35b34801561028c57600080fd5b506102a760048036038101906102a291906125e1565b610e8f565b6040516102b49190612f11565b60405180910390f35b3480156102c957600080fd5b506102d26110ef565b6040516102df9190612f11565b60405180910390f35b3480156102f457600080fd5b5061030f600480360381019061030a91906126d9565b6113dc565b60405161031c9190612fe1565b60405180910390f35b34801561033157600080fd5b5061033a61148c565b6040516103479190612fc6565b60405180910390f35b61036a60048036038101906103659190612646565b6114b0565b005b34801561037857600080fd5b50610393600480360381019061038e919061283d565b6118be565b005b3480156103a157600080fd5b506103bc60048036038101906103b791906125e1565b611a5c565b6040516103cb93929190613003565b60405180910390f35b3480156103e057600080fd5b506103e9611b38565b6040516103f69190612e57565b60405180910390f35b34801561040b57600080fd5b50610426600480360381019061042191906126d9565b611b61565b6040516104339190612f33565b60405180910390f35b34801561044857600080fd5b50610463600480360381019061045e91906127ee565b611b81565b005b34801561047157600080fd5b5061048c6004803603810190610487919061287e565b611e40565b005b34801561049a57600080fd5b506104b560048036038101906104b0919061283d565b611fea565b005b6104bf6121c9565b600160003373ffffffffffffffffffffffffffffffffffffffff1673ffffffffffffffffffffffffffffffffffffffff16815260200190815260200160002060010160019054906101000a900460ff1661054e576040517f08c379a00000000000000000000000000000000000000000000000000000000081526004016105459061309f565b60405180910390fd5b600160003373ffffffffffffffffffffffffffffffffffffffff1673ffffffffffffffffffffffffffffffffffffffff168152602001908152602001600020604051806080016040529081600082018054600181600116156101000203166002900480601f0160208091040260200160405190810160405280929190818152602001828054600181600116156101000203166002900480156106315780601f1061060657610100808354040283529160200191610631565b820191906000526020600020905b81548152906001019060200180831161061457829003601f168201915b505050505081526020016001820160009054906101000a900460ff16600181111561065857fe5b600181111561066357fe5b81526020016001820160019054906101000a900460ff1615151515815260200160028201805480602002602001604051908101604052809291908181526020016000905b82821015610763578382906000526020600020018054600181600116156101000203166002900480601f01602080910402602001604051908101604052809291908181526020018280546001816001161561010002031660029004801561074f5780601f106107245761010080835404028352916020019161074f565b820191906000526020600020905b81548152906001019060200180831161073257829003601f168201915b5050505050815260200190600101906106a7565b5050505081525050905090565b6002602052816000526040600020818154811061078957fe5b906000526020600020906004020160009150915050806000018054600181600116156101000203166002900480601f0160208091040260200160405190810160405280929190818152602001828054600181600116156101000203166002900480156108365780601f1061080b57610100808354040283529160200191610836565b820191906000526020600020905b81548152906001019060200180831161081957829003601f168201915b5050505050908060010154908060020160009054906101000a900460ff16905083565b60066020528060005260406000206000915054906101000a900460ff1681565b60008060009054906101000a900473ffffffffffffffffffffffffffffffffffffffff1673ffffffffffffffffffffffffffffffffffffffff1663dce9c2768a8a8a8a3063e1d3aebf60e01b8c8c6040518963ffffffff1660e01b81526004016108ea989796959493929190612f4e565b602060405180830381600087803b15801561090457600080fd5b505af1158015610918573d6000803e3d6000fd5b505050506040513d601f19601f8201168201806040525081019061093c9190612702565b905060016005600083815260200190815260200160002060006101000a81548160ff021916908315150217905550828260076000848152602001908152602001600020919061098c9291906121fe565b50505050505050505050565b6060600160003373ffffffffffffffffffffffffffffffffffffffff1673ffffffffffffffffffffffffffffffffffffffff16815260200190815260200160002060010160019054906101000a900460ff16610a29576040517f08c379a0000000000000000000000000000000000000000000000000000000008152600401610a209061309f565b60405180910390fd5b600160003373ffffffffffffffffffffffffffffffffffffffff1673ffffffffffffffffffffffffffffffffffffffff168152602001908152602001600020600201805480602002602001604051908101604052809291908181526020016000905b82821015610b47578382906000526020600020018054600181600116156101000203166002900480601f016020809104026020016040519081016040528092919081815260200182805460018160011615610100020316600290048015610b335780601f10610b0857610100808354040283529160200191610b33565b820191906000526020600020905b815481529060010190602001808311610b1657829003601f168201915b505050505081526020019060010190610a8b565b50505050905090565b60001515600382604051610b649190612e40565b908152602001604051809103902060010160149054906101000a900460ff16151514610bc5576040517f08c379a0000000000000000000000000000000000000000000000000000000008152600401610bbc9061311f565b60405180910390fd5b6001600382604051610bd79190612e40565b908152602001604051809103902060010160156101000a81548160ff02191690836002811115610c0357fe5b02179055506001600382604051610c1a9190612e40565b908152602001604051809103902060010160146101000a81548160ff0219169083151502179055503373ffffffffffffffffffffffffffffffffffffffff166108fc600383604051610c6c9190612e40565b9081526020016040518091039020600401549081150290604051600060405180830381858888f19350505050158015610ca9573d6000803e3d6000fd5b5050565b6003818051602081018201805184825260208301602085012081835280955050505050506000915090508060000160009054906101000a900473ffffffffffffffffffffffffffffffffffffffff16908060010160009054906101000a900473ffffffffffffffffffffffffffffffffffffffff16908060010160149054906101000a900460ff16908060010160159054906101000a900460ff1690806002018054600181600116156101000203166002900480601f016020809104026020016040519081016040528092919081815260200182805460018160011615610100020316600290048015610de15780601f10610db657610100808354040283529160200191610de1565b820191906000526020600020905b815481529060010190602001808311610dc457829003601f168201915b505050505090806003018054600181600116156101000203166002900480601f016020809104026020016040519081016040528092919081815260200182805460018160011615610100020316600290048015610e7f5780601f10610e5457610100808354040283529160200191610e7f565b820191906000526020600020905b815481529060010190602001808311610e6257829003601f168201915b5050505050908060040154905087565b6060600260008373ffffffffffffffffffffffffffffffffffffffff1673ffffffffffffffffffffffffffffffffffffffff168152602001908152602001600020805480602002602001604051908101604052809291908181526020016000905b828210156110e45783829060005260206000209060040201604051806080016040529081600082018054600181600116156101000203166002900480601f016020809104026020016040519081016040528092919081815260200182805460018160011615610100020316600290048015610fac5780601f10610f8157610100808354040283529160200191610fac565b820191906000526020600020905b815481529060010190602001808311610f8f57829003601f168201915b50505050508152602001600182015481526020016002820160009054906101000a900460ff166001811115610fdd57fe5b6001811115610fe857fe5b815260200160038201805480602002602001604051908101604052809291908181526020016000905b828210156110cd578382906000526020600020018054600181600116156101000203166002900480601f0160208091040260200160405190810160405280929190818152602001828054600181600116156101000203166002900480156110b95780601f1061108e576101008083540402835291602001916110b9565b820191906000526020600020905b81548152906001019060200180831161109c57829003601f168201915b505050505081526020019060010190611011565b505050508152505081526020019060010190610ef0565b505050509050919050565b6060600160003373ffffffffffffffffffffffffffffffffffffffff1673ffffffffffffffffffffffffffffffffffffffff16815260200190815260200160002060010160019054906101000a900460ff16611180576040517f08c379a00000000000000000000000000000000000000000000000000000000081526004016111779061309f565b60405180910390fd5b600260003373ffffffffffffffffffffffffffffffffffffffff1673ffffffffffffffffffffffffffffffffffffffff168152602001908152602001600020805480602002602001604051908101604052809291908181526020016000905b828210156113d35783829060005260206000209060040201604051806080016040529081600082018054600181600116156101000203166002900480601f01602080910402602001604051908101604052809291908181526020018280546001816001161561010002031660029004801561129b5780601f106112705761010080835404028352916020019161129b565b820191906000526020600020905b81548152906001019060200180831161127e57829003601f168201915b50505050508152602001600182015481526020016002820160009054906101000a900460ff1660018111156112cc57fe5b60018111156112d757fe5b815260200160038201805480602002602001604051908101604052809291908181526020016000905b828210156113bc578382906000526020600020018054600181600116156101000203166002900480601f0160208091040260200160405190810160405280929190818152602001828054600181600116156101000203166002900480156113a85780601f1061137d576101008083540402835291602001916113a8565b820191906000526020600020905b81548152906001019060200180831161138b57829003601f168201915b505050505081526020019060010190611300565b5050505081525050815260200190600101906111df565b50505050905090565b60076020528060005260406000206000915090508054600181600116156101000203166002900480601f0160208091040260200160405190810160405280929190818152602001828054600181600116156101000203166002900480156114845780601f1061145957610100808354040283529160200191611484565b820191906000526020600020905b81548152906001019060200180831161146757829003601f168201915b505050505081565b60008054906101000a900473ffffffffffffffffffffffffffffffffffffffff1681565b600160003373ffffffffffffffffffffffffffffffffffffffff1673ffffffffffffffffffffffffffffffffffffffff16815260200190815260200160002060010160019054906101000a900460ff1661153f576040517f08c379a00000000000000000000000000000000000000000000000000000000081526004016115369061309f565b60405180910390fd5b600260008573ffffffffffffffffffffffffffffffffffffffff1673ffffffffffffffffffffffffffffffffffffffff168152602001908152602001600020838154811061158957fe5b9060005260206000209060040201600101543410156115dd576040517f08c379a00000000000000000000000000000000000000000000000000000000081526004016115d4906130df565b60405180910390fd5b6115e561227e565b6040518060e001604052803373ffffffffffffffffffffffffffffffffffffffff1681526020018673ffffffffffffffffffffffffffffffffffffffff1681526020016000151581526020016000600281111561163e57fe5b81526020018481526020018381526020013481525090506000600260008773ffffffffffffffffffffffffffffffffffffffff1673ffffffffffffffffffffffffffffffffffffffff16815260200190815260200160002085815481106116a157fe5b906000526020600020906004020190508060030182608001519080600181540180825580915050600190039060005260206000200160009091909190915090805190602001906116f29291906122f4565b506000600160003373ffffffffffffffffffffffffffffffffffffffff1673ffffffffffffffffffffffffffffffffffffffff16815260200190815260200160002090508060020183608001519080600181540180825580915050600190039060005260206000200160009091909190915090805190602001906117779291906122f4565b50826003866040516117899190612e40565b908152602001604051809103902060008201518160000160006101000a81548173ffffffffffffffffffffffffffffffffffffffff021916908373ffffffffffffffffffffffffffffffffffffffff16021790555060208201518160010160006101000a81548173ffffffffffffffffffffffffffffffffffffffff021916908373ffffffffffffffffffffffffffffffffffffffff16021790555060408201518160010160146101000a81548160ff02191690831515021790555060608201518160010160156101000a81548160ff0219169083600281111561186957fe5b0217905550608082015181600201908051906020019061188a9291906122f4565b5060a08201518160030190805190602001906118a79291906122f4565b5060c0820151816004015590505050505050505050565b600015156003826040516118d29190612e40565b908152602001604051809103902060010160149054906101000a900460ff16151514611933576040517f08c379a000000000000000000000000000000000000000000000000000000000815260040161192a9061311f565b60405180910390fd5b60026003826040516119459190612e40565b908152602001604051809103902060010160156101000a81548160ff0219169083600281111561197157fe5b021790555060016003826040516119889190612e40565b908152602001604051809103902060010160146101000a81548160ff0219169083151502179055506003816040516119c09190612e40565b908152602001604051809103902060000160009054906101000a900473ffffffffffffffffffffffffffffffffffffffff1673ffffffffffffffffffffffffffffffffffffffff166108fc600383604051611a1b9190612e40565b9081526020016040518091039020600401549081150290604051600060405180830381858888f19350505050158015611a58573d6000803e3d6000fd5b5050565b6001602052806000526040600020600091509050806000018054600181600116156101000203166002900480601f016020809104026020016040519081016040528092919081815260200182805460018160011615610100020316600290048015611b085780601f10611add57610100808354040283529160200191611b08565b820191906000526020600020905b815481529060010190602001808311611aeb57829003601f168201915b5050505050908060010160009054906101000a900460ff16908060010160019054906101000a900460ff16905083565b60008060009054906101000a900473ffffffffffffffffffffffffffffffffffffffff16905090565b60056020528060005260406000206000915054906101000a900460ff1681565b60008054906101000a900473ffffffffffffffffffffffffffffffffffffffff1673ffffffffffffffffffffffffffffffffffffffff163373ffffffffffffffffffffffffffffffffffffffff1614611c0f576040517f08c379a0000000000000000000000000000000000000000000000000000000008152600401611c069061307f565b60405180910390fd5b6005600084815260200190815260200160002060009054906101000a900460ff16611c6f576040517f08c379a0000000000000000000000000000000000000000000000000000000008152600401611c66906130bf565b60405180910390fd5b6005600084815260200190815260200160002060006101000a81549060ff02191690556000821415611e3b57806006600085815260200190815260200160002060006101000a81548160ff0219169083151502179055508015611d8557611d80600760008581526020019081526020016000208054600181600116156101000203166002900480601f016020809104026020016040519081016040528092919081815260200182805460018160011615610100020316600290048015611d765780601f10611d4b57610100808354040283529160200191611d76565b820191906000526020600020905b815481529060010190602001808311611d5957829003601f168201915b5050505050610b50565b611e3a565b611e39600760008581526020019081526020016000208054600181600116156101000203166002900480601f016020809104026020016040519081016040528092919081815260200182805460018160011615610100020316600290048015611e2f5780601f10611e0457610100808354040283529160200191611e2f565b820191906000526020600020905b815481529060010190602001808311611e1257829003601f168201915b50505050506118be565b5b5b505050565b600160003373ffffffffffffffffffffffffffffffffffffffff1673ffffffffffffffffffffffffffffffffffffffff16815260200190815260200160002060010160019054906101000a900460ff16611ecf576040517f08c379a0000000000000000000000000000000000000000000000000000000008152600401611ec69061309f565b60405180910390fd5b611ed7612374565b82816000018190525081816020018181525050600081604001906001811115611efc57fe5b90816001811115611f0957fe5b81525050600260003373ffffffffffffffffffffffffffffffffffffffff1673ffffffffffffffffffffffffffffffffffffffff1681526020019081526020016000208190806001815401808255809150506001900390600052602060002090600402016000909190919091506000820151816000019080519060200190611f929291906122f4565b506020820151816001015560408201518160020160006101000a81548160ff02191690836001811115611fc157fe5b02179055506060820151816003019080519060200190611fe29291906123a7565b505050505050565b600160003373ffffffffffffffffffffffffffffffffffffffff1673ffffffffffffffffffffffffffffffffffffffff16815260200190815260200160002060010160019054906101000a900460ff161561207a576040517f08c379a0000000000000000000000000000000000000000000000000000000008152600401612071906130ff565b60405180910390fd5b6120826121c9565b604051806080016040528083815260200160018081111561209f57fe5b8152602001600115158152602001600067ffffffffffffffff811180156120c557600080fd5b506040519080825280602002602001820160405280156120f957816020015b60608152602001906001900390816120e45790505b50815250905080600160003373ffffffffffffffffffffffffffffffffffffffff1673ffffffffffffffffffffffffffffffffffffffff168152602001908152602001600020600082015181600001908051906020019061215b9291906122f4565b5060208201518160010160006101000a81548160ff0219169083600181111561218057fe5b021790555060408201518160010160016101000a81548160ff02191690831515021790555060608201518160020190805190602001906121c19291906123a7565b509050505050565b604051806080016040528060608152602001600060018111156121e857fe5b8152602001600015158152602001606081525090565b828054600181600116156101000203166002900490600052602060002090601f016020900481019282601f1061223f57803560ff191683800117855561226d565b8280016001018555821561226d579182015b8281111561226c578235825591602001919060010190612251565b5b50905061227a9190612407565b5090565b6040518060e00160405280600073ffffffffffffffffffffffffffffffffffffffff168152602001600073ffffffffffffffffffffffffffffffffffffffff168152602001600015158152602001600060028111156122d957fe5b81526020016060815260200160608152602001600081525090565b828054600181600116156101000203166002900490600052602060002090601f016020900481019282601f1061233557805160ff1916838001178555612363565b82800160010185558215612363579182015b82811115612362578251825591602001919060010190612347565b5b5090506123709190612407565b5090565b604051806080016040528060608152602001600081526020016000600181111561239a57fe5b8152602001606081525090565b8280548282559060005260206000209081019282156123f6579160200282015b828111156123f55782518290805190602001906123e59291906122f4565b50916020019190600101906123c7565b5b5090506124039190612424565b5090565b5b80821115612420576000816000905550600101612408565b5090565b5b80821115612444576000818161243b9190612448565b50600101612425565b5090565b50805460018160011615610100020316600290046000825580601f1061246e575061248d565b601f01602090049060005260206000209081019061248c9190612407565b5b50565b60008135905061249f81613411565b92915050565b6000813590506124b481613428565b92915050565b6000813590506124c98161343f565b92915050565b6000815190506124de8161343f565b92915050565b60008083601f8401126124f657600080fd5b8235905067ffffffffffffffff81111561250f57600080fd5b60208301915083600182028301111561252757600080fd5b9250929050565b60008083601f84011261254057600080fd5b8235905067ffffffffffffffff81111561255957600080fd5b60208301915083600182028301111561257157600080fd5b9250929050565b600082601f83011261258957600080fd5b813561259c6125978261318e565b613161565b915080825260208301602083018583830111156125b857600080fd5b6125c3838284613397565b50505092915050565b6000813590506125db81613456565b92915050565b6000602082840312156125f357600080fd5b600061260184828501612490565b91505092915050565b6000806040838503121561261d57600080fd5b600061262b85828601612490565b925050602061263c858286016125cc565b9150509250929050565b6000806000806080858703121561265c57600080fd5b600061266a87828801612490565b945050602061267b878288016125cc565b935050604085013567ffffffffffffffff81111561269857600080fd5b6126a487828801612578565b925050606085013567ffffffffffffffff8111156126c157600080fd5b6126cd87828801612578565b91505092959194509250565b6000602082840312156126eb57600080fd5b60006126f9848285016124ba565b91505092915050565b60006020828403121561271457600080fd5b6000612722848285016124cf565b91505092915050565b60008060008060008060008060c0898b03121561274757600080fd5b60006127558b828c016124ba565b98505060206127668b828c016124ba565b97505060406127778b828c016125cc565b96505060606127888b828c01612490565b955050608089013567ffffffffffffffff8111156127a557600080fd5b6127b18b828c016124e4565b945094505060a089013567ffffffffffffffff8111156127d057600080fd5b6127dc8b828c0161252e565b92509250509295985092959890939650565b60008060006060848603121561280357600080fd5b6000612811868287016124ba565b9350506020612822868287016125cc565b9250506040612833868287016124a5565b9150509250925092565b60006020828403121561284f57600080fd5b600082013567ffffffffffffffff81111561286957600080fd5b61287584828501612578565b91505092915050565b6000806040838503121561289157600080fd5b600083013567ffffffffffffffff8111156128ab57600080fd5b6128b785828601612578565b92505060206128c8858286016125cc565b9150509250929050565b60006128de8383612b2b565b905092915050565b60006128f28383612d4e565b905092915050565b61290381613286565b82525050565b6000612914826131da565b61291e8185613215565b935083602082028501612930856131ba565b8060005b8581101561296c578484038952815161294d85826128d2565b9450612958836131fb565b925060208a01995050600181019050612934565b50829750879550505050505092915050565b6000612989826131da565b6129938185613226565b9350836020820285016129a5856131ba565b8060005b858110156129e157848403895281516129c285826128d2565b94506129cd836131fb565b925060208a019950506001810190506129a9565b50829750879550505050505092915050565b60006129fe826131e5565b612a088185613237565b935083602082028501612a1a856131ca565b8060005b85811015612a565784840389528151612a3785826128e6565b9450612a4283613208565b925060208a01995050600181019050612a1e565b50829750879550505050505092915050565b612a7181613298565b82525050565b612a8081613298565b82525050565b612a8f816132a4565b82525050565b612a9e816132ae565b82525050565b6000612ab08385613248565b9350612abd838584613397565b612ac6836133d9565b840190509392505050565b612ada8161333d565b82525050565b612ae981613361565b82525050565b612af881613361565b82525050565b612b0781613373565b82525050565b612b1681613373565b82525050565b612b2581613385565b82525050565b6000612b36826131f0565b612b408185613259565b9350612b508185602086016133a6565b612b59816133d9565b840191505092915050565b6000612b6f826131f0565b612b79818561326a565b9350612b898185602086016133a6565b612b92816133d9565b840191505092915050565b6000612ba8826131f0565b612bb2818561327b565b9350612bc28185602086016133a6565b80840191505092915050565b6000612bdb601f8361326a565b91507f43616c6c6572206e6f7420746865204169726e6f646520636f6e7472616374006000830152602082019050919050565b6000612c1b600d8361326a565b91507f556e617574686f72697a656421000000000000000000000000000000000000006000830152602082019050919050565b6000612c5b60148361326a565b91507f4e6f20737563682072657175657374206d6164650000000000000000000000006000830152602082019050919050565b6000612c9b601a8361326a565b91507f506c6561736520706179207468652065786163742070726963650000000000006000830152602082019050919050565b6000612cdb60178361326a565b91507f416c7265616479206d61646520616e206163636f756e740000000000000000006000830152602082019050919050565b6000612d1b60118361326a565b91507f416c72656164792050616964204f7574210000000000000000000000000000006000830152602082019050919050565b60006080830160008301518482036000860152612d6b8282612b2b565b9150506020830151612d806020860182612e22565b506040830151612d936040860182612ae0565b5060608301518482036060860152612dab8282612909565b9150508091505092915050565b60006080830160008301518482036000860152612dd58282612b2b565b9150506020830151612dea6020860182612afe565b506040830151612dfd6040860182612a68565b5060608301518482036060860152612e158282612909565b9150508091505092915050565b612e2b81613333565b82525050565b612e3a81613333565b82525050565b6000612e4c8284612b9d565b915081905092915050565b6000602082019050612e6c60008301846128fa565b92915050565b600060e082019050612e87600083018a6128fa565b612e9460208301896128fa565b612ea16040830188612a77565b612eae6060830187612b1c565b8181036080830152612ec08186612b64565b905081810360a0830152612ed48185612b64565b9050612ee360c0830184612e31565b98975050505050505050565b60006020820190508181036000830152612f09818461297e565b905092915050565b60006020820190508181036000830152612f2b81846129f3565b905092915050565b6000602082019050612f486000830184612a77565b92915050565b600060e082019050612f63600083018b612a86565b612f70602083018a612a86565b612f7d6040830189612e31565b612f8a60608301886128fa565b612f9760808301876128fa565b612fa460a0830186612a95565b81810360c0830152612fb7818486612aa4565b90509998505050505050505050565b6000602082019050612fdb6000830184612ad1565b92915050565b60006020820190508181036000830152612ffb8184612b64565b905092915050565b6000606082019050818103600083015261301d8186612b64565b905061302c6020830185612b0d565b6130396040830184612a77565b949350505050565b6000606082019050818103600083015261305b8186612b64565b905061306a6020830185612e31565b6130776040830184612aef565b949350505050565b6000602082019050818103600083015261309881612bce565b9050919050565b600060208201905081810360008301526130b881612c0e565b9050919050565b600060208201905081810360008301526130d881612c4e565b9050919050565b600060208201905081810360008301526130f881612c8e565b9050919050565b6000602082019050818103600083015261311881612cce565b9050919050565b6000602082019050818103600083015261313881612d0e565b9050919050565b600060208201905081810360008301526131598184612db8565b905092915050565b6000604051905081810181811067ffffffffffffffff8211171561318457600080fd5b8060405250919050565b600067ffffffffffffffff8211156131a557600080fd5b601f19601f8301169050602081019050919050565b6000819050602082019050919050565b6000819050602082019050919050565b600081519050919050565b600081519050919050565b600081519050919050565b6000602082019050919050565b6000602082019050919050565b600082825260208201905092915050565b600082825260208201905092915050565b600082825260208201905092915050565b600082825260208201905092915050565b600082825260208201905092915050565b600082825260208201905092915050565b600081905092915050565b600061329182613313565b9050919050565b60008115159050919050565b6000819050919050565b60007fffffffff0000000000000000000000000000000000000000000000000000000082169050919050565b60008190506132e8826133ea565b919050565b60008190506132fb826133f7565b919050565b600081905061330e82613404565b919050565b600073ffffffffffffffffffffffffffffffffffffffff82169050919050565b6000819050919050565b60006133488261334f565b9050919050565b600061335a82613313565b9050919050565b600061336c826132da565b9050919050565b600061337e826132ed565b9050919050565b600061339082613300565b9050919050565b82818337600083830152505050565b60005b838110156133c45780820151818401526020810190506133a9565b838111156133d3576000848401525b50505050565b6000601f19601f8301169050919050565b600281106133f457fe5b50565b6002811061340157fe5b50565b6003811061340e57fe5b50565b61341a81613286565b811461342557600080fd5b50565b61343181613298565b811461343c57600080fd5b50565b613448816132a4565b811461345357600080fd5b50565b61345f81613333565b811461346a57600080fd5b5056fea26469706673582212200a4127e118ca476626043599dd3baf202826e5aa915f69a5e07422544031340364736f6c634300060c0033",
  "linkReferences": {},
  "deployedLinkReferences": {}
}