{
  "contractName": "ATC",
  "abi": [
    {
      "inputs": [
        {
          "internalType": "string",
          "name": "_username",
          "type": "string"
        }
      ],
      "stateMutability": "nonpayable",
      "type": "constructor"
    },
    {
      "inputs": [
        {
          "internalType": "address",
          "name": "",
          "type": "address"
        },
        {
          "internalType": "uint256",
          "name": "",
          "type": "uint256"
        },
        {
          "internalType": "uint256",
          "name": "",
          "type": "uint256"
        }
      ],
      "name": "dropSlots",
      "outputs": [
        {
          "internalType": "address",
          "name": "customer",
          "type": "address"
        },
        {
          "internalType": "bool",
          "name": "paidOut",
          "type": "bool"
        },
        {
          "internalType": "enum ATC.SlotStatus",
          "name": "slotStatus",
          "type": "uint8"
        }
      ],
      "stateMutability": "view",
      "type": "function",
      "constant": true
    },
    {
      "inputs": [
        {
          "internalType": "address",
          "name": "",
          "type": "address"
        }
      ],
      "name": "userData",
      "outputs": [
        {
          "internalType": "string",
          "name": "username",
          "type": "string"
        },
        {
          "internalType": "enum ATC.Role",
          "name": "role",
          "type": "uint8"
        }
      ],
      "stateMutability": "view",
      "type": "function",
      "constant": true
    },
    {
      "inputs": [
        {
          "internalType": "address",
          "name": "",
          "type": "address"
        },
        {
          "internalType": "uint256",
          "name": "",
          "type": "uint256"
        }
      ],
      "name": "userDrops",
      "outputs": [
        {
          "internalType": "string",
          "name": "title",
          "type": "string"
        },
        {
          "internalType": "uint256",
          "name": "price",
          "type": "uint256"
        },
        {
          "internalType": "enum ATC.DropStatus",
          "name": "dropStatus",
          "type": "uint8"
        }
      ],
      "stateMutability": "view",
      "type": "function",
      "constant": true
    },
    {
      "inputs": [
        {
          "internalType": "address",
          "name": "_newUser",
          "type": "address"
        },
        {
          "internalType": "string",
          "name": "_username",
          "type": "string"
        }
      ],
      "name": "addUser",
      "outputs": [],
      "stateMutability": "nonpayable",
      "type": "function"
    },
    {
      "inputs": [
        {
          "internalType": "string",
          "name": "_username",
          "type": "string"
        }
      ],
      "name": "register",
      "outputs": [],
      "stateMutability": "nonpayable",
      "type": "function"
    },
    {
      "inputs": [
        {
          "internalType": "string",
          "name": "_title",
          "type": "string"
        },
        {
          "internalType": "uint256",
          "name": "_price",
          "type": "uint256"
        }
      ],
      "name": "addDrop",
      "outputs": [],
      "stateMutability": "nonpayable",
      "type": "function"
    },
    {
      "inputs": [
        {
          "internalType": "address",
          "name": "_procurerAddress",
          "type": "address"
        },
        {
          "internalType": "uint256",
          "name": "_dropIndex",
          "type": "uint256"
        }
      ],
      "name": "buySlot",
      "outputs": [],
      "stateMutability": "payable",
      "type": "function",
      "payable": true
    },
    {
      "inputs": [],
      "name": "getDrops",
      "outputs": [
        {
          "components": [
            {
              "internalType": "string",
              "name": "title",
              "type": "string"
            },
            {
              "internalType": "uint256",
              "name": "price",
              "type": "uint256"
            },
            {
              "internalType": "enum ATC.DropStatus",
              "name": "dropStatus",
              "type": "uint8"
            }
          ],
          "internalType": "struct ATC.Drop[]",
          "name": "",
          "type": "tuple[]"
        }
      ],
      "stateMutability": "view",
      "type": "function",
      "constant": true
    },
    {
      "inputs": [
        {
          "internalType": "address",
          "name": "_procurer",
          "type": "address"
        }
      ],
      "name": "searchProcurerDrops",
      "outputs": [
        {
          "components": [
            {
              "internalType": "string",
              "name": "title",
              "type": "string"
            },
            {
              "internalType": "uint256",
              "name": "price",
              "type": "uint256"
            },
            {
              "internalType": "enum ATC.DropStatus",
              "name": "dropStatus",
              "type": "uint8"
            }
          ],
          "internalType": "struct ATC.Drop[]",
          "name": "",
          "type": "tuple[]"
        }
      ],
      "stateMutability": "view",
      "type": "function",
      "constant": true
    }
  ],
  "bytecode": "0x60806040523480156200001157600080fd5b506040516200175d3803806200175d8339818101604052810190620000379190620001ec565b6040518060400160405280828152602001600060018111156200005657fe5b8152506000803373ffffffffffffffffffffffffffffffffffffffff1673ffffffffffffffffffffffffffffffffffffffff1681526020019081526020016000206000820151816000019080519060200190620000b5929190620000ea565b5060208201518160010160006101000a81548160ff02191690836001811115620000db57fe5b021790555090505050620002c2565b828054600181600116156101000203166002900490600052602060002090601f016020900481019282601f106200012d57805160ff19168380011785556200015e565b828001600101855582156200015e579182015b828111156200015d57825182559160200191906001019062000140565b5b5090506200016d919062000171565b5090565b5b808211156200018c57600081600090555060010162000172565b5090565b600082601f830112620001a257600080fd5b8151620001b9620001b3826200025f565b62000231565b91508082526020830160208301858383011115620001d657600080fd5b620001e38382846200028c565b50505092915050565b600060208284031215620001ff57600080fd5b600082015167ffffffffffffffff8111156200021a57600080fd5b620002288482850162000190565b91505092915050565b6000604051905081810181811067ffffffffffffffff821117156200025557600080fd5b8060405250919050565b600067ffffffffffffffff8211156200027757600080fd5b601f19601f8301169050602081019050919050565b60005b83811015620002ac5780820151818401526020810190506200028f565b83811115620002bc576000848401525b50505050565b61148b80620002d26000396000f3fe6080604052600436106100865760003560e01c80637b9c5d18116100595780637b9c5d181461014e5780638691afb51461018b578063c8910913146101b6578063e52394da146101f4578063f2c298be1461021d57610086565b806307941d981461008b57806339a5c51d146100a75780634b68d431146100e65780635c855a5b1461010f575b600080fd5b6100a560048036038101906100a09190610dcd565b610246565b005b3480156100b357600080fd5b506100ce60048036038101906100c99190610dcd565b61042f565b6040516100dd939291906111b9565b60405180910390f35b3480156100f257600080fd5b5061010d60048036038101906101089190610d79565b610518565b005b34801561011b57600080fd5b5061013660048036038101906101319190610e09565b61066a565b60405161014593929190611130565b60405180910390f35b34801561015a57600080fd5b5061017560048036038101906101709190610d50565b6106f1565b6040516101829190611167565b60405180910390f35b34801561019757600080fd5b506101a0610868565b6040516101ad9190611167565b60405180910390f35b3480156101c257600080fd5b506101dd60048036038101906101d89190610d50565b6109dd565b6040516101eb929190611189565b60405180910390f35b34801561020057600080fd5b5061021b60048036038101906102169190610e99565b610aa6565b005b34801561022957600080fd5b50610244600480360381019061023f9190610e58565b610b8b565b005b600160008373ffffffffffffffffffffffffffffffffffffffff1673ffffffffffffffffffffffffffffffffffffffff168152602001908152602001600020818154811061029057fe5b9060005260206000209060030201600101543410156102e4576040517f08c379a00000000000000000000000000000000000000000000000000000000081526004016102db906111f7565b60405180910390fd5b600260008373ffffffffffffffffffffffffffffffffffffffff1673ffffffffffffffffffffffffffffffffffffffff168152602001908152602001600020600082815260200190815260200160002060405180606001604052803373ffffffffffffffffffffffffffffffffffffffff1681526020016000151581526020016000600281111561037157fe5b8152509080600181540180825580915050600190039060005260206000200160009091909190915060008201518160000160006101000a81548173ffffffffffffffffffffffffffffffffffffffff021916908373ffffffffffffffffffffffffffffffffffffffff16021790555060208201518160000160146101000a81548160ff02191690831515021790555060408201518160000160156101000a81548160ff0219169083600281111561042457fe5b021790555050505050565b6001602052816000526040600020818154811061044857fe5b906000526020600020906003020160009150915050806000018054600181600116156101000203166002900480601f0160208091040260200160405190810160405280929190818152602001828054600181600116156101000203166002900480156104f55780601f106104ca576101008083540402835291602001916104f5565b820191906000526020600020905b8154815290600101906020018083116104d857829003601f168201915b5050505050908060010154908060020160009054906101000a900460ff16905083565b6000600181111561052557fe5b6000803373ffffffffffffffffffffffffffffffffffffffff1673ffffffffffffffffffffffffffffffffffffffff16815260200190815260200160002060010160009054906101000a900460ff16600181111561057f57fe5b146105bf576040517f08c379a00000000000000000000000000000000000000000000000000000000081526004016105b690611217565b60405180910390fd5b60405180604001604052808281526020016001808111156105dc57fe5b8152506000808473ffffffffffffffffffffffffffffffffffffffff1673ffffffffffffffffffffffffffffffffffffffff1681526020019081526020016000206000820151816000019080519060200190610639929190610c35565b5060208201518160010160006101000a81548160ff0219169083600181111561065e57fe5b02179055509050505050565b6002602052826000526040600020602052816000526040600020818154811061068f57fe5b9060005260206000200160009250925050508060000160009054906101000a900473ffffffffffffffffffffffffffffffffffffffff16908060000160149054906101000a900460ff16908060000160159054906101000a900460ff16905083565b6060600160008373ffffffffffffffffffffffffffffffffffffffff1673ffffffffffffffffffffffffffffffffffffffff168152602001908152602001600020805480602002602001604051908101604052809291908181526020016000905b8282101561085d5783829060005260206000209060030201604051806060016040529081600082018054600181600116156101000203166002900480601f01602080910402602001604051908101604052809291908181526020018280546001816001161561010002031660029004801561080e5780601f106107e35761010080835404028352916020019161080e565b820191906000526020600020905b8154815290600101906020018083116107f157829003601f168201915b50505050508152602001600182015481526020016002820160009054906101000a900460ff16600181111561083f57fe5b600181111561084a57fe5b8152505081526020019060010190610752565b505050509050919050565b6060600160003373ffffffffffffffffffffffffffffffffffffffff1673ffffffffffffffffffffffffffffffffffffffff168152602001908152602001600020805480602002602001604051908101604052809291908181526020016000905b828210156109d45783829060005260206000209060030201604051806060016040529081600082018054600181600116156101000203166002900480601f0160208091040260200160405190810160405280929190818152602001828054600181600116156101000203166002900480156109855780601f1061095a57610100808354040283529160200191610985565b820191906000526020600020905b81548152906001019060200180831161096857829003601f168201915b50505050508152602001600182015481526020016002820160009054906101000a900460ff1660018111156109b657fe5b60018111156109c157fe5b81525050815260200190600101906108c9565b50505050905090565b6000602052806000526040600020600091509050806000018054600181600116156101000203166002900480601f016020809104026020016040519081016040528092919081815260200182805460018160011615610100020316600290048015610a895780601f10610a5e57610100808354040283529160200191610a89565b820191906000526020600020905b815481529060010190602001808311610a6c57829003601f168201915b5050505050908060010160009054906101000a900460ff16905082565b600160003373ffffffffffffffffffffffffffffffffffffffff1673ffffffffffffffffffffffffffffffffffffffff168152602001908152602001600020604051806060016040528084815260200183815260200160006001811115610b0957fe5b81525090806001815401808255809150506001900390600052602060002090600302016000909190919091506000820151816000019080519060200190610b51929190610c35565b506020820151816001015560408201518160020160006101000a81548160ff02191690836001811115610b8057fe5b021790555050505050565b6040518060400160405280828152602001600180811115610ba857fe5b8152506000803373ffffffffffffffffffffffffffffffffffffffff1673ffffffffffffffffffffffffffffffffffffffff1681526020019081526020016000206000820151816000019080519060200190610c05929190610c35565b5060208201518160010160006101000a81548160ff02191690836001811115610c2a57fe5b021790555090505050565b828054600181600116156101000203166002900490600052602060002090601f016020900481019282601f10610c7657805160ff1916838001178555610ca4565b82800160010185558215610ca4579182015b82811115610ca3578251825591602001919060010190610c88565b5b509050610cb19190610cb5565b5090565b5b80821115610cce576000816000905550600101610cb6565b5090565b600081359050610ce181611427565b92915050565b600082601f830112610cf857600080fd5b8135610d0b610d0682611264565b611237565b91508082526020830160208301858383011115610d2757600080fd5b610d328382846113ad565b50505092915050565b600081359050610d4a8161143e565b92915050565b600060208284031215610d6257600080fd5b6000610d7084828501610cd2565b91505092915050565b60008060408385031215610d8c57600080fd5b6000610d9a85828601610cd2565b925050602083013567ffffffffffffffff811115610db757600080fd5b610dc385828601610ce7565b9150509250929050565b60008060408385031215610de057600080fd5b6000610dee85828601610cd2565b9250506020610dff85828601610d3b565b9150509250929050565b600080600060608486031215610e1e57600080fd5b6000610e2c86828701610cd2565b9350506020610e3d86828701610d3b565b9250506040610e4e86828701610d3b565b9150509250925092565b600060208284031215610e6a57600080fd5b600082013567ffffffffffffffff811115610e8457600080fd5b610e9084828501610ce7565b91505092915050565b60008060408385031215610eac57600080fd5b600083013567ffffffffffffffff811115610ec657600080fd5b610ed285828601610ce7565b9250506020610ee385828601610d3b565b9150509250929050565b6000610ef983836110c2565b905092915050565b610f0a816112f6565b82525050565b6000610f1b826112a0565b610f2581856112c3565b935083602082028501610f3785611290565b8060005b85811015610f735784840389528151610f548582610eed565b9450610f5f836112b6565b925060208a01995050600181019050610f3b565b50829750879550505050505092915050565b610f8e81611308565b82525050565b610f9d81611377565b82525050565b610fac81611377565b82525050565b610fbb81611389565b82525050565b610fca8161139b565b82525050565b6000610fdb826112ab565b610fe581856112d4565b9350610ff58185602086016113bc565b610ffe816113ef565b840191505092915050565b6000611014826112ab565b61101e81856112e5565b935061102e8185602086016113bc565b611037816113ef565b840191505092915050565b600061104f601a836112e5565b91507f506c6561736520706179207468652065786163742070726963650000000000006000830152602082019050919050565b600061108f600c836112e5565b91507f41646d696e73206f6e6c792100000000000000000000000000000000000000006000830152602082019050919050565b600060608301600083015184820360008601526110df8282610fd0565b91505060208301516110f46020860182611112565b5060408301516111076040860182610f94565b508091505092915050565b61111b8161136d565b82525050565b61112a8161136d565b82525050565b60006060820190506111456000830186610f01565b6111526020830185610f85565b61115f6040830184610fc1565b949350505050565b600060208201905081810360008301526111818184610f10565b905092915050565b600060408201905081810360008301526111a38185611009565b90506111b26020830184610fb2565b9392505050565b600060608201905081810360008301526111d38186611009565b90506111e26020830185611121565b6111ef6040830184610fa3565b949350505050565b6000602082019050818103600083015261121081611042565b9050919050565b6000602082019050818103600083015261123081611082565b9050919050565b6000604051905081810181811067ffffffffffffffff8211171561125a57600080fd5b8060405250919050565b600067ffffffffffffffff82111561127b57600080fd5b601f19601f8301169050602081019050919050565b6000819050602082019050919050565b600081519050919050565b600081519050919050565b6000602082019050919050565b600082825260208201905092915050565b600082825260208201905092915050565b600082825260208201905092915050565b60006113018261134d565b9050919050565b60008115159050919050565b600081905061132282611400565b919050565b60008190506113358261140d565b919050565b60008190506113488261141a565b919050565b600073ffffffffffffffffffffffffffffffffffffffff82169050919050565b6000819050919050565b600061138282611314565b9050919050565b600061139482611327565b9050919050565b60006113a68261133a565b9050919050565b82818337600083830152505050565b60005b838110156113da5780820151818401526020810190506113bf565b838111156113e9576000848401525b50505050565b6000601f19601f8301169050919050565b6002811061140a57fe5b50565b6002811061141757fe5b50565b6003811061142457fe5b50565b611430816112f6565b811461143b57600080fd5b50565b6114478161136d565b811461145257600080fd5b5056fea2646970667358221220913bd5dfa66116a310e1bcbc6c2a9f9fc33b4768149c6dafbaeda802fbd2f39564736f6c63430007000033",
  "immutableReferences": {},
  "source": "pragma solidity ^0.7.0;\npragma experimental ABIEncoderV2;\n\ncontract ATC {\n    mapping(address => User) public userData;\n    mapping(address => Drop[]) public userDrops;\n    mapping(address => mapping(uint256 => Slot[])) public dropSlots;\n    enum Role {ADMIN, USER}\n    Role currentRole;\n\n    enum DropStatus {OPEN, CLOSED}\n    DropStatus dropStatus;\n\n    enum SlotStatus {PENDING, SUCCESS, FAILED}\n    SlotStatus slotStatus;\n\n    struct User {\n        string username;\n        Role role;\n    }\n\n    struct Drop {\n        string title;\n        uint256 price;\n        DropStatus dropStatus;\n    }\n\n    struct Slot {\n        address customer;\n        bool paidOut;\n        SlotStatus slotStatus;\n    }\n\n    modifier adminOnly() {\n        require(userData[msg.sender].role == Role.ADMIN, \"Admins only!\");\n        _;\n    }\n\n    constructor(string memory _username) public {\n        userData[msg.sender] = User(_username, Role.ADMIN);\n    }\n\n    function addUser(address _newUser, string memory _username)\n        public\n        adminOnly\n    {\n        userData[_newUser] = User(_username, Role.USER);\n    }\n\n    function register(string memory _username) public {\n        userData[msg.sender] = User(_username, Role.USER);\n    }\n\n    function addDrop(string memory _title, uint256 _price) public {\n        // userData[_newUser] = User(_username, Role.USER);\n        userDrops[msg.sender].push(Drop(_title, _price, DropStatus.OPEN));\n    }\n\n    function buySlot(address _procurerAddress, uint256 _dropIndex)\n        public\n        payable\n    {\n        require(\n            msg.value >= userDrops[_procurerAddress][_dropIndex].price,\n            \"Please pay the exact price\"\n        );\n        dropSlots[_procurerAddress][_dropIndex].push(\n            Slot(msg.sender, false, SlotStatus.PENDING)\n        );\n    }\n\n    function getDrops() public view returns (Drop[] memory) {\n        return userDrops[msg.sender];\n    }\n\n    function searchProcurerDrops(address _procurer)\n        public\n        view\n        returns (Drop[] memory)\n    {\n        return userDrops[_procurer];\n    }\n}\n",
  "sourcePath": "/Users/camro/Dev/SmrtContracts/atc/contracts/ATC.sol",
  "compiler": {
    "name": "solc",
    "version": "0.7.0+commit.9e61f92b.Emscripten.clang"
  },
  "schemaVersion": "3.3.4",
  "updatedAt": "2021-03-22T21:16:00.901Z",
  "networkType": "ethereum",
  "devdoc": {
    "kind": "dev",
    "methods": {},
    "version": 1
  },
  "userdoc": {
    "kind": "user",
    "methods": {},
    "version": 1
  }
}